:03000000021513D3
:0C151300787FE4F6D8FD75812002155A9F
:0C000300000000000000000000000000F1
:0B000F00EF1FAC0670011E4C70F622C3
:10192F00AB07AA06EB1BAE0270011A4E60097FAA25
:08193F007E0512000F80ED226D
:10126400907120E04480F07F057E0012000FE4FFBF
:10127400FE12192F75A75575AC589071327450F041
:101284009071307403F0907136742FF07F18EF244E
:1012940066FDE434718D82F583E4F00FEFB433EE30
:1012A400904011E4935407FF90711CE054F84FF000
:1012B400904017E493547FFF90711DE054804FF0E9
:1012C400904010E493FF5401C43333335480FE90B0
:1012D4007123E0547F4EF0EFC313543F4440FFA307
:1012E400E054804FF0904012E493FF540FFE90714D
:1012F40046E054F04EF0EFC4540FFF90714FE054A9
:10130400F04FF0904013E493543FFF907140E05449
:10131400C04FF0904014E493907126F0904015E48F
:0E13240093907128F0904016E49390712AF097
:011332002298
:070A9B00446282428C00005E
:10133300C3906046E09470906045E09417400302C8
:1013430013C8E4FFFE7D807CBF906282E0F8A3E0D7
:10135300F9A3E0FAA3E0FB12002EE4FBFA79A878E4
:1013630042120228E4FBFA798078BF12002E9062C1
:10137300861205F0906282E0FCA3E0FDA3E0FEA3E9
:10138300E0FFE4FBFAF9783F12002E906282120527
:10139300F0906286E0FCA3E0FDA3E0FEA3E0FF90F3
:1013A30062721205F07F007E007DA07C40120D6703
:1013B300E4FBFA7970784212011F1202C59060456E
:1013C300EEF0A3EFF0C3906046E09470906045E0C8
:0C13D300941740077417F0A37470F02208
:1013DF0075D9DD12126475D95590715EE054FEF027
:1013EF0075D9BB1218F712191412173212182912C5
:1013FF0018D7C294E4906045F0A3F09062987417E8
:10140F00F0A37470F0D204906298E0FEA3E0FFC3E3
:10141F00906046E09F906045E09E503B121981120C
:10142F001869300325C203C390628CE094C39062A5
:10143F008BE094084014906298E0FEA3E0FF906068
:10144F0046E09F906045E09E500D300105C20112AD
:10145F00133312196F80B0C2041219811218691256
:0A146F0011581216D112001A80EF76
:100AA200426045000042626B1770426267177042F3
:100AB20060430000426265000042626310004162CE
:100AC2006D00621C60470000000000000000000092
:100AD2000000000000000000000000000000000014
:100AE2000000000000000000000000000000000004
:100AF20000000000000000000000000000000000F4
:100B020000000000000000000000000000000000E3
:100CE2000000426269000060406000FFFF000000F7
:100CF20000000000000000000000000000000000F2
:100D020000000000000000000000000000000000E1
:100D120000000000000000000000000000000000D1
:100D2200000000000000000000000041604000419F
:090D320060410041604200C1056E
:101732007812E24401F278567407F278277417F2AD
:1017420018746FF27833E4F218F27819E24401F275
:101752007811E24401F27817E24401F27812E2448D
:1017620001F27814E24401F27818E24401F278D3EB
:10177200E254CFF2E24410F2E254FCF2E24401F20B
:0C17820090718AE4F090718C740AF022DF
:10196F00906045E07833F2A3E018F27817E2440173
:02197F00F22252
:10065A0090626E1205FC00000000906000E0F470E9
:09066A0003A3E0F460030206FFA3
:10067300906272F0A3F0906272E0FEA3E0FFC39475
:1006830020EE9400502E90628BE0FCA3E0FDEF255A
:10069300E0FFEE33FE74002FF58274603EF583ECC9
:1006A300F0A3EDF0906273E004F070CA906272E020
:1006B30004F080C2E4906272F0A3F0906272E0FEF4
:1006C300A3E0FFC3940EEE9401400302076090621F
:1006D3008BE0FCA3E0FDEF25E0FFEE33FE74472F34
:1006E300F58274603EF583ECF0A3EDF0906273E065
:0C06F30004F070C7906272E004F080BF59
:1006FF00906040E025E02400F582E43460F583E06B
:10070F00FFA3E0906272CFF0A3EFF090628BE0FE58
:10071F00A3E0FF906273E02FF0906272E03EF0E092
:10072F00C313FEA3E013FF906272EEF0A3EFF090FD
:10073F006040E025E02400F582E43460F583EEF0BC
:10074F00A3EFF0906040E004F0E0C394204002E497
:01075F00F0A9
:10076000E4906272F0A3F090626EE0F8A3E0F9A367
:10077000E0FAA3E0FB906273E025E0FF906272E094
:1007800033FE74002FF58274603EF583E0FEA3E033
:10079000FFE4FCFDEB2FFFEA3EFEED39FDEC38FCFB
:1007A00090626E1205F0906273E004F07006906241
:1007B00072E004F0906272E07004A3E0642070A71D
:1007C00090626EE0FCA3E0FDA3E0FEA3E0FF7805ED
:0907D0001205B190626E1205F0F1
:1007D90090626EA3A3E0FEA3E0FDAC0690626AE01E
:1007E90025E0FF906269E033FE74472FF58274605B
:1007F9003EF583ECF0A3EDF090626AE004F0700638
:10080900906269E004F0C390626AE0940E906269B4
:09081900E094014004E4F0A3F0B6
:10082200E4906272F0A3F0906265F0A3F0906263CC
:100832007410F0A3E4F0906272E0FEA3E0FFC394B0
:100842000EEE94014003020906EF25E0FFEE33FEAF
:1008520074472FF58274603EF583E0FCA3E0FD90BF
:100862006265E0FAA3E0FBD3ED9BEC9A4016744775
:100872002FF58274603EF583E0FFA3E0906265CFBE
:10088200F0A3EFF0906273E025E0FF906272E03334
:10089200FE74472FF58274603EF583E0FCA3E0FD11
:1008A200906263E0FAA3E0FBC3ED9BEC9A501674EE
:1008B200472FF58274603EF583E0FFA3E090626308
:1008C200CFF0A3EFF0906263E0FEA3E0FFC390627B
:1008D20066E09FFF906265E09EFED3EF9450EE9437
:1008E20000400890626D741EF0800890626DE060B6
:1008F2000214F0906273E004F07006906272E004F9
:04090200F0020838BF
:10090600E47F8B7E06FDFC90626EE0F8A3E0F9A31F
:10091600E0FAA3E0FBC31205A0502020050302095C
:10092600B1E47F8B7E06FDFC90626EE0F8A3E0F9F1
:10093600A3E0FAA3E0FB1205A04070E4906041F04A
:10094600A3F0D20590626DE0FFB41E3214F0D3908E
:10095600626CE094B890626BE0940B400CA3E024C8
:10096600FFF090626BE034FFF0C390626CE094B8E5
:1009760090626BE0940B4003020A9A020A3AEF6017
:1009860003020A9A200203020A9AC202C390626C08
:10099600E0947090626BE094174003020A9AA3E019
:1009A60004F0700690626BE004F022E47FC37E05DB
:1009B600FDFC90626EE0F8A3E0F9A3E0FAA3E0FB89
:1009C600D31205A04076E47F6D7E06FDFC90626E34
:1009D600E0F8A3E0F9A3E0FAA3E0FBD31205A040F8
:1009E60008906041E064047053200303020A9AC22F
:1009F60003906041E0C394045003E004F0E4906087
:100A060042F0C205D390626CE094B890626BE094B9
:100A16000B40028069C390626CE094B890626BE010
:100A2600940B500DA3E004F0700690626BE004F0A6
:100A36002290626B740BF0A374B8F022E47FC37E3D
:100A460005FDFC90626EE0F8A3E0F9A3E0FAA3E0EE
:100A5600FBD31205A04006906042E06037300334B5
:100A6600C2039060427401F0E4906041F0C205D385
:100A760090626CE0940890626BE09407400DA3E0EE
:100A860024FEF090626BE034FFF02290626B7407F4
:040A9600F0A304F0D5
:010A9A002239
:03001A00C294226B
:10160B0090626BE0FEA3E0FF906298E0FCA3E0FD2C
:10161B0012062DE47B707A17F9F8120500906045DD
:10162B00EEF0A3EFF012196F200438D3906046E070
:10163B0094C8906045E09400500E7818E254FEF286
:10164B0090718CE4F0D29622C3906046E094FA90AD
:10165B006045E09400400C90718C740AF07818E2AD
:04166B004401F22222
:0F0D3B0041628D0041628A00C10642628B000056
:1018F70078F2E24403F278E3E244C0F278F0E2548B
:0D190700FDF208E254FDF208E2440CF22269
:10159F0090628AE06F6064EFF0786AE24478F275E7
:1015AF0091FFEF24FE601D1460302402704690718D
:1015BF0023E054F8F0E0441EF09071227407F075A8
:1015CF009918802A907123E054D8F0E0441DF090D0
:1015DF0071227407F07599178014907123E054F8F5
:1015EF00F0E0441EF09071227407F0759919786934
:0B15FF00E24448F27F017E0012192F29
:01160A0022BD
:100ECD00E4906277F0A3F0A3F090627A1205FC0033
:100EDD00000000E490627EF0A3F074FF906280F059
:100EED00A3F0E4906277F07869E24401F2786BE266
:100EFD0030E1FAAF93EF75F010A4FFE594C4540FF1
:100F0D00FDEF4DFF906278E5F0F0A3EFF07402F283
:100F1D00906277E0C39402406D90627EE0FEA3E0A4
:100F2D00FFD3906279E09F906278E09E400CE0FFE5
:100F3D00A3E090627ECFF0A3EFF0906280E0FEA37D
:100F4D00E0FFC3906279E09F906278E09E500CE0E4
:100F5D00FFA3E0906280CFF0A3EFF090627AE0F80B
:100F6D00A3E0F9A3E0FAA3E0FB906278E0FEA3E032
:100F7D00FFE4FCFDEB2FFFEA3EFEED39FDEC38FC06
:100F8D0090627A1205F0906277E004F0E0641460EC
:100F9D0003020EF490627AE0FCA3E0FDA3E0FEA351
:100FAD00E0FFC006C00790627EE0FEA3E0FBAA064C
:100FBD00D007D006C3EF9BFFEE9AFEED9400FDEC3B
:100FCD009400FC90627A1205F090627AE0FCA3E046
:100FDD00FDA3E0FEA3E0FFC006C007906280E0FE27
:100FED00A3E0FBAA06D007D006C3EF9BFFEE9AFE47
:100FFD00ED9400FDEC9400FC90627A1205F0906285
:10100D007AE0FCA3E0FDA3E0FEA3E0FF7804120567
:10101D00B1906278EEF0A3EFF0906278E0FEA3E07D
:01102D00FFC3
:01102E00229F
:1018A1009062731205FC00000000120ECDE4FCFDF5
:1018B1009062731205F0E47F0CFEFDFC906273E010
:1018C100F8A3E0F9A3E0FAA3E0FB120475E47B0AB4
:0618D100FAF9F80205001F
:1011580090626E1205FC0000000090628DE064024F
:1011680070030212637F0112159F1218A190626E1C
:101178001205F090628DE070587FEA7E0BFDFC90BE
:10118800626EE0F8A3E0F9A3E0FAA3E0FBC312055E
:03119800A0503E26
:10119B00E4906272F0F01218A190626E1205F0E406
:1011AB007FEA7E0BFDFC90626EE0F8A3E0F9A3E012
:1011BB00FAA3E0FBD31205A04006E490628DF02267
:0E11CB00906272E004F0E0C3940A40CA8062B1
:0B11D90090628DE0640160030212636D
:1011E40020060FD20690628E1205FC000000001249
:1011F40019A2E47F307E75FDFC90628EE0F8A3E0D6
:0D120400F9A3E0FAA3E0FBC31205A04052DD
:10121100E4906272F0F01218A190626E1205F0E48F
:101221007FEA7E0BFDFC90626EE0F8A3E0F9A3E09B
:10123100FAA3E0FBD31205A0400790628D7401F080
:1012410022906272E004F0E0C3940A40C990628D7A
:101251007402F012195B90628E1205FC000000000E
:02126100C206C3
:011263002268
:1016D10090628DE0700612065A02160B90628DE040
:1016E100B4012390626B740BF0A374B8F090626B39
:1016F100E0FEA3E0FF906045E06E7003A3E06F6041
:101701002F12160B80E790628DE0B4022390626B7A
:101711007405F0A374DCF090626BE0FEA3E0FF902F
:101721006045E06E7003A3E06F600512160B80E761
:011731002295
:101981007F0212159F120ECD90628BEEF0A3EFF045
:011991002233
:0C0D4A0041629700C10041629600C101A7
:1019140043A820D2AF75D10178957401F21874767A
:0B192400F2789174A0F21874FDF2221A
:101992007890E2541FF2E244C0F243A820D2AF2270
:101947007890E2541FF2E244A0F27892E4F208F2AF
:0419570053A8DF2290
:03001E000217E3E3
:1017E300C0E0C083C082C0D075D000C0007891E251
:1017F30030E728E24480F2906297E004F09062962A
:10180300E004F0A3E0C394194004E4F0D200906232
:1018130096E0C3940D4004E4F0D201D000D0D0D0C0
:0618230082D083D0E03208
:070D560044628E0000000062
:10182900E5B154CF42B1789CE254E3F2E24414F2B8
:10183900E254FCF2E24401F208E24480F2E244207C
:10184900F278A1743BF2187460F2789EE4F208F21F
:10185900789CE2541FF2E244A0F253A8BFD2AF220F
:1019A200789CE2541FF2E244C0F243A840D2AF2234
:10195B00789CE2541FF2E244A0F2789EE4F208F283
:04196B0053A8BF229C
:0300210002178E35
:10178E00C0E0C0F0C083C082C0D075D000C000C021
:10179E0004C005C006C007789DE230E723E244800E
:1017AE00F290628EE0FCA3E0FDA3E0FEA3E0240134
:1017BE00FFE43EFEE43DFDE43CFC90628E1205F03B
:1017CE00D007D006D005D004D000D0D0D082D083A0
:0517DE00D0F0D0E03264
:040D5D00C102C1030B
:1018D70043A901D2AF75D104907105E4F09071046A
:1018E7007424F090710174A0F090710074FDF022DF
:0300240002166F52
:10166F00C0E0C083C082C0D0907101E030E74AE093
:10167F004480F0906293E004F07006906292E00470
:10168F00F0906295E004F07006906294E004F0C36D
:10169F00906295E0940D906294E094004006E4F01F
:1016AF00A3F0D203C3906293E0940D906292E09402
:1016BF00004006E4F0A3F0D202D0D0D082D083D085
:0216CF00E03207
:050D6100426298000051
:10186900E490626EF0A3F07F0312159F120ECD90E3
:10187900626EEEF0A3EFF090626EE0FEA3E0FF7CF3
:10188900177D7012062DE4FB7A10F9F81205009005
:071899006298EEF0A3EFF0EE
:0118A0002225
:10002700020331E86480F8E933E83360110460F0D3
:10003700ED33EC337009E8FCE9FDEAFEEBFF22043F
:1000470060DED3EB9FEA9EE99DE8C2E78CF0C2F73A
:1000570095F0400CE8CCF8E9CDF9EACEFAEBCFFB06
:100067001202FC85D0F05804700320D5B3E8047061
:10007700075002B2D502033B92D5EC0460F7E4CCFB
:10008700C0E0C398F8603B94186008400DD0E0FBCF
:10009700020313E4FBFAC9FC8028E830E406E4C94C
:1000A700FBE4CAFCE830E305E4C9CACBFCE8540723
:1000B7006010F8C3E913F9EA13FAEB13FBEC13FC2E
:1000C700D8F130F52FC3E49CFCEF9BFFEE9AFEEDD1
:1000D70099FDD0E0FBEF4E4D4C701222DB0302037B
:1000E70038EC2CFCEF33FFEE33FEED33FDED30E75C
:1000F700EB020313EF2BFFEE3AFEED39FDD0E0FBE9
:1001070050130BBB000302033BED13FDEE13FEEF91
:0801170013FFEC13FC020313BB
:10011F00EC4D6011E8497017ED33EC3304600DE4DA
:10012F00FCFFFEFD22E933E8330470F802033112BD
:10013F0002FC58046009E4CC2481500628500902BF
:10014F00033B284003020338C0E0EB4A7044B980F8
:10015F0006D0E0FB020327EF4E701CBD8008EBFFBB
:10016F00EAFEE9FD80EBE98DF0A4FEE5F00202085E
:10017F00E9CDF9EAFEEBFFEF89F0A4FCE5F0CE89BB
:10018F00F0A42EFFE435F0CD89F0A42DFEE435F078
:10019F008067EF4E7005BD80D780C3EF8BF0A4ACA6
:1001AF00F0EE8BF0A42CFCE435F0F8EF8AF0A42CE1
:1001BF00E5F038FCE433CB8DF0A42CFCE5F03BF8F4
:1001CF00EE8AF0A42CFCE5F038F8E433CF89F0A4E4
:1001DF002CFCE5F038CF3400CE89F0A42FFFE5F0EA
:1001EF003EFEE433C98DF0A42EFEE5F039CD8AF042
:1001FF00A42FFFE5F03EFEE43DFD33D0E0FB5007BA
:10020F000BBB000F02033BEC2CFCEF33FFEE33FE76
:06021F00ED33FD020313A4
:1002250002033BEC5D046005E859047003020331E9
:100235001202FC580460F6EC4860F2EC7004FDFE16
:10024500FF22C860DB2481C85009C39860025006AC
:100255000203389850CAF582E9294B4A7005AB82EA
:1002650002032775F0007C1A7880C3EF9BEE9AEDA8
:1002750099400DC3EF9BFFEE9AFEED99FDE842F024
:10028500DC23ACF0D0E0FFD0E0FED0E0FDAB822077
:10029500E7101BEB60BAEC2CFCEF33FFEE33FEED01
:1002A50033FD020313E803F830E705C0F075F000ED
:1002B500EF2FFFEE33FEED33FD40B830E7C280AAE5
:1002C500EDD2E7CD33EC3392D524814006E4FFFE31
:1002D500FDFC22FCE4CFCECDCC24E0501174FF8090
:1002E500EDC3CC13CCCD13CDCE13CECF13CF04702D
:0702F500F030D5DE02059296
:100D670090626E1205F0E4FFFE7D807C3F90626E1C
:100D7700E0F8A3E0F9A3E0FAA3E0FB120360700632
:100D870090626E020EC190626EE0FCA3E0FDA3E0EC
:100D9700FEA3E0FF120346FBA3E0FCA3E0FDA3E0F4
:100DA700FEA3E0FF120346FFB40108E4FFFE7D80C7
:100DB7007C3F22EF64046029EB64046024EBB401F8
:100DC70030E4FFFEFDFC906272E0F8A3E0F9A3E0D7
:100DD700FAA3E0FB12036060084006E4FFFEFDFC97
:100DE700229062721205FCFFFFFFFF906272020EF3
:100DF700C1E4906276F0A3F0FFFEFDFC90626EE026
:100E0700F8A3E0F9A3E0FAA3E0FB120360505F90B8
:100E17006272E0FCA3E0FDA3E0FEA3E0FF1202C5BF
:100E2700906276EEF0A3EFF0FDCCEECCEC1203EF80
:100E3700C8ECC8C9EDC9CAEECACBEFCB906272E065
:100E4700FCA3E0FDA3E0FEA3E0FF12002AE4FBFA07
:100E5700F9F8120360708A90626EE0FCA3E0FDA3CC
:100E6700E0FEA3E0FF1203D990626E1205F09062D4
:100E77006EE0FCA3E0FDA3E0FEA3E0FF1210639089
:100E87006272E0F8A3E0F9A3E0FAA3E0FB12011F06
:100E97001214B19062721205F0906277E030E01799
:100EA700906272E0FCA3E0FDA3E0FEA3E0FF120363
:100EB700D99062721205F0906272E0FCA3E0FDA384
:060EC700E0FEA3E0FF22A3
:1002FC00E9D2E7C933E833F892D5EDD2E7CD33EC48
:07030C0033FC5002B2D522C0
:10031300EC30E7100FBF000C0EBE00080DBD00044B
:100323000BEB6014A2D5EB13FCED92E7FD2274FFF7
:10033300FCFDFEFF22E480F8A2D574FF13FC7D8050
:03034300E480EF64
:10034600ED33EC33601004700FED547F70057402CA
:0A03560092E0227404220422E42243
:1003600074F8CC6480CCC86480C8F58204604FC344
:10037000EB9FF5F0EA9E42F0E99D42F0E89C45F0E3
:10038000603C501DE5825FFFE582D313CB5BCBF46D
:100390002B5582FB50280ABA002409B90020088096
:1003A0001DE5825BFBE582D313CF5FCFF4C3132F30
:1003B0005582FF50090EBE00050DBD00010CC3EBB8
:1003C0009FF5F0EA9E42F0E99D42F0E89C45F0601E
:0903D00007CC4820E701B3EC2240
:1003D900ED33EC33600A047003BD8004ECB2E7FC32
:0103E90022F1
:1003EA0075F020800E75F010800575F0087D007E8E
:1003FA00007F003392D530D503120592EC334010BA
:10040A00EF33FFEE33FEED33FDEC33FCD5F0ED2296
:0E041A00E5F0247EA2D513CC92E7CDCEFF22D2
:1014790033DA929E35B16011377FE5FE39218489CF
:101489003AAEC3FF3C1D955B3D6358473E75FDF081
:101499003F3172183F800000C2D502033B0203317D
:1014A900BD80FA50F3020338ED33EC330460F17B6D
:1014B9003B7AAA79B8783F12011FED33EC3392D504
:1014C900247B5011A2D570DB500BED4480240450CD
:1014D90004A2D580CEEFFBEEFAEDF9ECF81202C5C5
:1014E900EFF582F404FC1203F412002EC08290146A
:1014F900797409120437ED33CC33D0F092D525F045
:0A150900A2D57001C313CC13FD221C
:10102F003E9248DA3ECCCCCD3F2AAAAB400000001E
:10103F003F8000003F9837F03FB504F33FD744FCA3
:10104F003E3172173EB172173F0515913EDE5BD9E7
:10105F00D2078002C207EDD2E7F8CD33EC3304702C
:10106F000BBD800592D502033B02033140FBD31425
:10107F0060F2F5F07C3FEE7A00C39496C8948B40F3
:10108F00230AC89469C8941A401A0AC89468C89465
:10109F001F40110AC8945AC89425400805F07A00D9
:1010AF00CDC2E7CDC0F09062781205F0EA2323C0DD
:1010BF00E0243FF582E43410F5831205E012002E90
:1010CF00ECC0E0EDC0E0EEC0E0EFC0E01205C49070
:1010DF0062781205D412002AD0E0FBD0E0FAD0E0FB
:1010EF00F9D0E0B2E7F81202289062781205F0907A
:1010FF00102F74031204289062781205D412011F66
:10110F00D0E0600F244BF582E43410F5831205E034
:10111F0012002E9062781205F0D0E0C3947FFDE4A8
:10112F009400FC1203EF7B187A727931783F120129
:10113F001F9062781205D412002E30070B7BD97ADC
:09114F005B79DE783E12011F22DB
:10042800C0E0EFFBEEFAEDF9ECF812011FD0E0F5B1
:10043800F0EFFBEEFAEDF9ECF81205C4A3A3A3A3C1
:10044800E8C0E0E9C0E0EAC0E0EBC0E0C0F01201BB
:100458001F1205E0A3A3A3A312002ED0F0D0E0FB47
:0D046800D0E0FAD0E0F9D0E0F8D5F0D422D1
:10151F000213DFE493A3F8E493A34003F68001F2F0
:10152F0008DFF48029E493A3F85407240CC8C333CD
:10153F00C4540F4420C8834004F456800146F6DF9C
:10154F00E4800B0102040810204080900A9BE47E87
:10155F00019360BCA3FF543F30E509541FFEE49391
:10156F00A360010ECF54C025E060A840B8E493A358
:10157F00FAE493A3F8E493A3C8C582C8CAC583CA83
:10158F00F0A3C8C582C8CAC583CADFE9DEE780BE3B
:010D6600008C
:10047500E88FF0A4CC8BF0A42CFCE98EF0A42CFC26
:100485008AF0EDA42CFCEA8EF0A4CDA8F08BF0A4A4
:100495002DCC3825F0FDE98FF0A42CCD35F0FCEB03
:1004A5008EF0A4FEA9F0EB8FF0A4CFC5F02ECD39C8
:0F04B500FEE43CFCEAA42DCE35F0FDE43CFC2235
:1004C40075F008758200EF2FFFEE33FECD33CDCCEF
:1004D40033CCC58233C5829BED9AEC99E582984072
:1004E4000CF582EE9BFEED9AFDEC99FC0FD5F0D64F
:1004F400E4CEFBE4CDFAE4CCF9A88222B800C1B979
:100504000059BA002DEC8BF084CFCECDFCE5F0CBB6
:10051400F97818EF2FFFEE33FEED33FDEC33FCEBEF
:1005240033FB10D703994004EB99FB0FD8E5E4F9AA
:10053400FA227818EF2FFFEE33FEED33FDEC33FC97
:10054400C933C910D7059BE99A4007EC9BFCE99A8B
:10055400F90FD8E0E4C9FAE4CCFB2275F010EF2FD0
:10056400FFEE33FEED33FDCC33CCC833C810D707D0
:100574009BEC9AE899400AED9BFDEC9AFCE899F80B
:0E0584000FD5F0DAE4CDFBE4CCFAE4C8F9229E
:0E059200C3E49FFFE49EFEE49DFDE49CFC227A
:1005A000EB9FF5F0EA9E42F0E99D42F0E89C45F0B1
:0105B0002228
:1005B100E8600FECC313FCED13FDEE13FEEF13FF28
:0305C100D8F1224C
:1005C400E493FC740193FD740293FE740393FF227D
:0C05D400E0F8A3E0F9A3E0FAA3E0FB22AA
:1005E000E493F8740193F9740293FA740393FB2271
:0C05F000ECF0A3EDF0A3EEF0A3EFF0227E
:1005FC00A8828583F0D083D08212061312061312C0
:10060C000613120613E473E493A3C583C5F0C583E4
:10061C00C8C582C8F0A3C583C5F0C583C8C582C848
:01062C0022AB
:10062D00EC8EF0A4CCC5F0CCCDF8EFA4CEC5F02D5A
:10063D00FDE43CFCE8A42EC8C5F03DFDE43CFCEF18
:0D064D00A4FFE5F028FEE43DFDE43CFC22A6
:00000001FF
