:030000000219DD05
:0C19DD00787FE4F6D8FD758121021A2401
:0C000300000000000000000000000000F1
:0B000F00EF1FAC0670011E4C70F622C3
:101CCD00AB07AA06EB1BAE0270011A4E60097FAA84
:081CDD007E0512000F80ED22CC
:10171F00907120E04480F07F057E0012000FE4FFFF
:10172F00FE121CCD75A75575AC589071327450F0E0
:10173F009071307403F0907136742FF07F18EF248E
:10174F0066FDE434718D82F583E4F00FEFB433EE70
:10175F00904011E4935407FF90711CE054F84FF040
:10176F00904017E493547FFF90711DE054804FF029
:10177F00904010E493FF5401C43333335480FE90F0
:10178F007123E0547F4EF0EFC313543F4440FFA347
:10179F00E054804FF0904012E493FF540FFE90718D
:1017AF0046E054F04EF0EFC4540FFF90714FE054E9
:1017BF00F04FF0904013E493543FFF907140E0548A
:1017CF00C04FF0904014E493907126F0904015E4D0
:0E17DF0093907128F0904016E49390712AF0D8
:0117ED0022D9
:07065A0044649E428C000085
:1017EE00C3906046E09470906045E0941740030209
:1017FE001883E4FFFE7D807CBF90649EE0F8A3E03A
:10180E00F9A3E0FAA3E0FB12002EE4FBFA79A87824
:10181E0042120228E4FBFA798078BF12002E9064FF
:10182E00A21205F090649EE0FCA3E0FDA3E0FEA3EF
:10183E00E0FFE4FBFAF9783F12002E90649E120549
:10184E00F09064A2E0FCA3E0FDA3E0FEA3E0FF9015
:10185E00648E1205F07F007E007DA07C40120F8A00
:10186E00E4FBFA7970784212011F1202C5906045AE
:10187E00EEF0A3EFF0C3906046E09470906045E008
:0C188E00941740077417F0A37470F02248
:10189A0075D9DD12171F75D95590715EE054FEF0A7
:1018AA0075D9BB121C95121CB2121AD5121BCC1276
:1018BA001C75C294E4906045F0A3F09064B6741766
:1018CA00F0A37470F0D2059064B6E0FEA3E0FFC303
:1018DA00906046E09F906045E09E503B121D1F12AB
:1018EA0010F0300125C201C39064AEE094C3906445
:1018FA00ADE0940840149064B6E0FEA3E0FF906067
:10190A0046E09F906045E09E500D300405C20412E7
:10191A0017EE121D0D80B0906045E0FFA3E09064C1
:10192A0087CFF0A3EFF0C205121D1F1210F0121696
:09193A0013121C4212001A80EF86
:1006610042604500004264871770426483177042FC
:1006710060430000426481000042647F10004164D5
:10068100890064386047000000000000000000009D
:100691000000000000000000000000000000000059
:1006A1000000000000000000000000000000000049
:1006B1000000000000000000000000000000000039
:1006C1000000000000000000000000000000000029
:100AB100000000000000000000000000000042648F
:100AC10085000060406000FFFF00000000000000A2
:100AD1000000000000000000000000000000000015
:100AE1000000000000000000000000000000000005
:100AF10000000000000000000000000000000000F5
:100B010000000000000000416040004160410041E0
:050B1100604200C10676
:101AD5007812E24401F278567407F278277417F207
:101AE50018746FF27833E4F218F27819E24401F2CF
:101AF5007811E24401F27817E24401F27812E244E7
:101B050001F27814E24401F27818E24401F278D344
:101B1500E254CFF2E24410F2E254FCF2E24401F264
:0C1B250090718AE4F090718C740AF02238
:101D0D00906045E07833F2A3E018F27817E24401D1
:021D1D00F222B0
:100B490090648A1205FC00000000906000E0F470D7
:090B590003A3E0F46003020BEEBB
:100B620090648EF0A3F090648EE0FEA3E0FFC39445
:100B720020EE9400502E9064ADE0FCA3E0FDEF2542
:100B8200E0FFEE33FE74002FF58274603EF583ECD5
:100B9200F0A3EDF090648FE004F070CA90648EE0F0
:100BA20004F080C2E490648EF0A3F090648EE0FEC4
:100BB200A3E0FFC3941CEE94024003020C4F906426
:100BC200ADE0FCA3E0FDEF25E0FFEE33FE74472F1E
:100BD200F58274603EF583ECF0A3EDF090648FE053
:0C0BE20004F070C790648EE004F080BF47
:100BEE00906040E025E02400F582E43460F583E077
:100BFE00FFA3E090648ECFF0A3EFF09064ADE0FE23
:100C0E00A3E0FF90648FE02FF090648EE03EF0E062
:100C1E00C313FEA3E013FF90648EEEF0A3EFF090EB
:100C2E006040E025E02400F582E43460F583EEF0C8
:100C3E00A3EFF0906040E004F0E0C394204002E4A3
:010C4E00F0B5
:100C4F00E490648EF0A3F090648AE0F8A3E0F9A337
:100C5F00E0FAA3E0FB90648FE025E0FF90648EE064
:100C6F0033FE74002FF58274603EF583E0FEA3E03F
:100C7F00FFE4FCFDEB2FFFEA3EFEED39FDEC38FC07
:100C8F0090648A1205F090648FE004F0700690640F
:100C9F008EE004F090648EE07004A3E0642070A7EF
:100CAF0090648AE0FCA3E0FDA3E0FEA3E0FF7805DB
:090CBF001205B190648A1205F0DF
:100CC80090648AA3A3E0FEA3E0FDAC06906486E0EE
:100CD80025E0FF906485E033FE74472FF582746049
:100CE8003EF583ECF0A3EDF0906486E004F0700626
:100CF800906485E004F0C3906486E0941C90648559
:090D0800E094024004E4F0A3F0C1
:100D1100E490648EF0A3F0906481F0A3F090647F7E
:100D21007410F0A3E4F090648EE0FEA3E0FFC3949E
:100D31001CEE94024003020DF5EF25E0FFEE33FEB9
:100D410074472FF58274603EF583E0FCA3E0FD90CB
:100D51006481E0FAA3E0FBD3ED9BEC9A4016744763
:100D61002FF58274603EF583E0FFA3E0906481CFAC
:100D7100F0A3EFF090648FE025E0FF90648EE03304
:100D8100FE74472FF58274603EF583E0FCA3E0FD1D
:100D910090647FE0FAA3E0FBC3ED9BEC9A501674DC
:100DA100472FF58274603EF583E0FFA3E090647FF6
:100DB100CFF0A3EFF090647FE0FEA3E0FFC3906467
:100DC10082E09FFF906481E09EFED3EF9450EE9409
:100DD100004008906489741EF08008906489E06086
:100DE1000214F090648FE004F0700690648EE004C9
:040DF100F0020D27D8
:100DF500E47F8B7E06FDFC90648AE0F8A3E0F9A30E
:100E0500E0FAA3E0FBC31205A05020200603020E62
:100E1500A0E47F8B7E06FDFC90648AE0F8A3E0F9F0
:100E2500A3E0FAA3E0FB1205A04070E4906041F056
:100E3500A3F0D206906489E0FFB41E3214F0D3907B
:100E45006488E094B8906487E0940B400CA3E02498
:100E5500FFF0906487E034FFF0C3906488E094B8B5
:100E6500906487E0940B4003020F89020F29EF601D
:100E750003020F89200003020F89C200C390648812
:100E8500E09470906487E094174003020F89A3E013
:100E950004F07006906487E004F022E47FC37E05C9
:100EA500FDFC90648AE0F8A3E0F9A3E0FAA3E0FB77
:100EB500D31205A04076E47F6D7E06FDFC90648A22
:100EC500E0F8A3E0F9A3E0FAA3E0FBD31205A04004
:100ED50008906041E064047053200103020F89C249
:100EE50001906041E0C394045003E004F0E4906095
:100EF50042F0C206D3906488E094B8906487E09489
:100F05000B40028069C3906488E094B8906487E0E0
:100F1500940B500DA3E004F07006906487E004F094
:100F250022906487740BF0A374B8F022E47FC37E2B
:100F350005FDFC90648AE0F8A3E0F9A3E0FAA3E0DC
:100F4500FBD31205A04006906042E06037300134C3
:100F5500C2019060427401F0E4906041F0C206D392
:100F6500906488E09408906487E09407400DA3E0BE
:100F750024FEF0906487E034FFF0229064877407C4
:040F8500F0A304F0E1
:010F89002245
:03001A00C294226B
:01001D0022C0
:0F0B16004164AF004164AC00C1074264AD000010
:101C950078F2E24403F278E3E244C0F278F0E254E9
:0D1CA500FDF208E254FDF208E2440CF222C8
:101A69009064ACE06F6064EFF0786AE24478F275F4
:101A790091FFEF24FE601D146030240270469071BE
:101A890023E054F8F0E0441EF09071227407F075D9
:101A99009918802A907123E054D8F0E0441DF09001
:101AA90071227407F07599178014907123E054F826
:101AB900F0E0441EF09071227407F0759919786965
:0B1AC900E24448F27F017E00121CCDB9
:011AD40022EF
:10125400E4906493F0A3F0A3F09064961205FC006C
:10126400000000E490649AF0A3F074FF90649CF092
:10127400A3F0E4906493F07869E24401F2786BE2BD
:1012840030E1FAAF93EF75F010A4FFE594C4540F66
:10129400FDEF4DFF906494E5F0F0A3EFF07402F2DB
:1012A400906493E0C39402406D90649AE0FEA3E0DE
:1012B400FFD3906495E09F906494E09E400CE0FF1F
:1012C400A3E090649ACFF0A3EFF090649CE0FEA3B7
:1012D400E0FFC3906495E09F906494E09E500CE01E
:1012E400FFA3E090649CCFF0A3EFF0906496E0F845
:1012F400A3E0F9A3E0FAA3E0FB906494E0FEA3E08A
:10130400FFE4FCFDEB2FFFEA3EFEED39FDEC38FC7B
:101314009064961205F0906493E004F0E064146025
:101324000302127B906496E0FCA3E0FDA3E0FEA31D
:10133400E0FFC006C00790649AE0FEA3E0FBAA06A3
:10134400D007D006C3EF9BFFEE9AFEED9400FDECB0
:101354009400FC9064961205F0906496E0FCA3E07F
:10136400FDA3E0FEA3E0FFC006C00790649CE0FE7E
:10137400A3E0FBAA06D007D006C3EF9BFFEE9AFEBC
:10138400ED9400FDEC9400FC9064961205F09064DA
:1013940096E0FCA3E0FDA3E0FEA3E0FF78041205C1
:1013A400B1906494EEF0A3EFF0906494E0FEA3E0B7
:0113B400FF39
:0113B5002215
:101C0C0090648F1205FC00000000121254E4FCFDDD
:101C1C0090648F1205F0E47F0CFEFDFC90648FE065
:101C2C00F8A3E0F9A3E0FAA3E0FB120475E47B0A45
:061C3C00FAF9F8020500B0
:1016130090648A1205FC000000009064AFE064024D
:10162300700302171E7F01121A69121C0C90648A40
:101633001205F09064AFE070587FEA7E0BFDFC90DA
:10164300648AE0F8A3E0F9A3E0FAA3E0FBC3120580
:03165300A0503E66
:10165600E490648EF0F0121C0C90648A1205F0E49B
:101666007FEA7E0BFDFC90648AE0F8A3E0F9A3E034
:10167600FAA3E0FBD31205A04006E49064AFF02283
:0E16860090648EE004F0E0C3940A40CA8062D3
:0B1694009064AFE06401600302171EC9
:10169F0020070FD2079064B01205FC000000001263
:1016AF001D40E47F307E75FDFC9064B0E0F8A3E050
:0D16BF00F9A3E0FAA3E0FBC31205A040521E
:1016CC00E490648EF0F0121C0C90648A1205F0E425
:1016DC007FEA7E0BFDFC90648AE0F8A3E0F9A3E0BE
:1016EC00FAA3E0FBD31205A040079064AF7401F09D
:1016FC002290648EE004F0E0C3940A40C99064AF79
:10170C007402F0121CF99064B01205FC0000000089
:02171C00C20702
:01171E0022A8
:101C42009064AFE07005120B4980249064AFE0B459
:101C5200010C906487740BF0A374B8F08011906447
:101C6200AFE0B4020D9064877405F0A374DCF01247
:031C7200001D2230
:101D1F007F02121A691212549064ADEEF0A3EFF025
:011D2F002291
:0C0B25004164B900C1034164B800C10480
:101CB20043A820D2AF75D10178957401F2187476D9
:0B1CC200F2789174A0F21874FDF22279
:101D30007890E2541FF2E244C0F243A820D2AF22CE
:101CE5007890E2541FF2E244A0F27892E4F208F20E
:041CF50053A8DF22EF
:03001E00021B863C
:101B8600C0E0C083C082C0D075D000C0007891E2AA
:101B960030E728E24480F29064B9E004F09064B83B
:101BA600E004F0A3E0C394194004E4F0D203906487
:101BB600B8E0C3940D4004E4F0D204D000D0D0D0F5
:061BC60082D083D0E03262
:070B31004464B00000000065
:101BCC00E5B154CF42B1789CE254E3F2E24414F212
:101BDC00E254FCF2E24401F208E24480F2E24420D6
:101BEC00F278A1743BF2187460F2789EE4F208F279
:101BFC00789CE2541FF2E244A0F253A8BFD2AF2269
:101D4000789CE2541FF2E244C0F243A840D2AF2292
:101CF900789CE2541FF2E244A0F2789EE4F208F2E2
:041D090053A8BF22FA
:03002100021B318E
:101B3100C0E0C0F0C083C082C0D075D000C000C07A
:101B410004C005C006C007789DE230E723E2448067
:101B5100F29064B0E0FCA3E0FDA3E0FEA3E0240169
:101B6100FFE43EFEE43DFDE43CFC9064B01205F070
:101B7100D007D006D005D004D000D0D0D082D083F9
:051B8100D0F0D0E032BD
:0B0B3800C100C1014264AA0000C1021C
:101C750043A901D2AF75D104907105E4F0907104C8
:101C85007424F090710174A0F090710074FDF0223D
:030024000213B60E
:1013B600C0E0C0F0C083C082C0D075D000C000C0FD
:1013C60001C002C003C004C005C006C00790710179
:1013D600E020E7030214CFE04480F09064A7E00425
:1013E600F070069064A6E004F09064A9E004F07042
:1013F600069064A8E004F09064ABE004F0700690F8
:1014060064AAE004F0C39064A9E0940D9064A8E097
:1014160094004006E4F0A3F0D201C39064A7E094E0
:101426000D9064A6E094004006E4F0A3F0D200C359
:101436009064ABE094059064AAE094005003021413
:10144600CFE4F0A3F03005030214CF906045E0FE30
:10145600A3E0FFD39064B5E09F9064B4E09E401093
:10146600906046E004F07006906045E004F080234A
:10147600906045E0FEA3E0FFC39064B5E09F9064F2
:10148600B4E09E500E906046E024FFF0906045E088
:1014960034FFF0121D0DD3906046E0940090604535
:1014A600E09400500F7818E254FEF290718CE4F04C
:1014B600D2968015C3906045E09400400C90718CE4
:1014C600740AF07818E24401F2D007D006D005D0AD
:1014D60004D003D002D001D000D0D0D082D083D0A7
:0414E600F0D0E03230
:050B43004264B6000051
:1010F000E490648AF0A3F07F03121A6912125490EC
:10110000648AEEF0A3EFF0D390648BE094EA9064ED
:101110008AE09401500AE49064B6F0A3F002121041
:10112000D390648BE094DD90648AE09404501DE0D9
:10113000FEA3E0FF7C2E7DE012062DE47B0AFAF987
:10114000F8120500E47BFE7A040211F7D390648B59
:10115000E094EE90648AE09408501DE0FEA3E0FF66
:101160007C5D7DC012062DE47B0AFAF9F8120500B9
:10117000E47BC27A090211F7D390648BE094129059
:10118000648AE0940B501CE0FEA3E0FF7C177D70A6
:1011900012062DE47B02FAF9F8120500E47B517A7D
:1011A0000A8054D390648BE094BC90648AE0940CE1
:1011B000501CE0FEA3E0FF7C8C7DA012062DE47B9A
:1011C0000AFAF9F8120500E47B9A7A0D8029D39087
:1011D000648BE0949190648AE0940F5029E0FEA320
:1011E000E0FF7CBB7D8012062DE47B0AFAF9F81241
:1011F0000500E47BF77A0FF9F81205009064B6EE6B
:10120000F0A3EFF0800A9064B67417F0A37470F046
:10121000906487E0FEA3E0FF9064B6E0FCA3E0FDED
:1012200012062DE47B707A17F9F81205009064B469
:10123000EEF0A3EFF0C39064B5E0943E9064B4E0A8
:101240009417400F906487E0FFA3E09064B4CFF060
:03125000A3EFF019
:011253002278
:10002700020331E86480F8E933E83360110460F0D3
:10003700ED33EC337009E8FCE9FDEAFEEBFF22043F
:1000470060DED3EB9FEA9EE99DE8C2E78CF0C2F73A
:1000570095F0400CE8CCF8E9CDF9EACEFAEBCFFB06
:100067001202FC85D0F05804700320D5B3E8047061
:10007700075002B2D502033B92D5EC0460F7E4CCFB
:10008700C0E0C398F8603B94186008400DD0E0FBCF
:10009700020313E4FBFAC9FC8028E830E406E4C94C
:1000A700FBE4CAFCE830E305E4C9CACBFCE8540723
:1000B7006010F8C3E913F9EA13FAEB13FBEC13FC2E
:1000C700D8F130F52FC3E49CFCEF9BFFEE9AFEEDD1
:1000D70099FDD0E0FBEF4E4D4C701222DB0302037B
:1000E70038EC2CFCEF33FFEE33FEED33FDED30E75C
:1000F700EB020313EF2BFFEE3AFEED39FDD0E0FBE9
:1001070050130BBB000302033BED13FDEE13FEEF91
:0801170013FFEC13FC020313BB
:10011F00EC4D6011E8497017ED33EC3304600DE4DA
:10012F00FCFFFEFD22E933E8330470F802033112BD
:10013F0002FC58046009E4CC2481500628500902BF
:10014F00033B284003020338C0E0EB4A7044B980F8
:10015F0006D0E0FB020327EF4E701CBD8008EBFFBB
:10016F00EAFEE9FD80EBE98DF0A4FEE5F00202085E
:10017F00E9CDF9EAFEEBFFEF89F0A4FCE5F0CE89BB
:10018F00F0A42EFFE435F0CD89F0A42DFEE435F078
:10019F008067EF4E7005BD80D780C3EF8BF0A4ACA6
:1001AF00F0EE8BF0A42CFCE435F0F8EF8AF0A42CE1
:1001BF00E5F038FCE433CB8DF0A42CFCE5F03BF8F4
:1001CF00EE8AF0A42CFCE5F038F8E433CF89F0A4E4
:1001DF002CFCE5F038CF3400CE89F0A42FFFE5F0EA
:1001EF003EFEE433C98DF0A42EFEE5F039CD8AF042
:1001FF00A42FFFE5F03EFEE43DFD33D0E0FB5007BA
:10020F000BBB000F02033BEC2CFCEF33FFEE33FE76
:06021F00ED33FD020313A4
:1002250002033BEC5D046005E859047003020331E9
:100235001202FC580460F6EC4860F2EC7004FDFE16
:10024500FF22C860DB2481C85009C39860025006AC
:100255000203389850CAF582E9294B4A7005AB82EA
:1002650002032775F0007C1A7880C3EF9BEE9AEDA8
:1002750099400DC3EF9BFFEE9AFEED99FDE842F024
:10028500DC23ACF0D0E0FFD0E0FED0E0FDAB822077
:10029500E7101BEB60BAEC2CFCEF33FFEE33FEED01
:1002A50033FD020313E803F830E705C0F075F000ED
:1002B500EF2FFFEE33FEED33FD40B830E7C280AAE5
:1002C500EDD2E7CD33EC3392D524814006E4FFFE31
:1002D500FDFC22FCE4CFCECDCC24E0501174FF8090
:1002E500EDC3CC13CCCD13CDCE13CECF13CF04702D
:0702F500F030D5DE02059296
:100F8A0090648A1205F0E4FFFE7D807C3F90648ABB
:100F9A00E0F8A3E0F9A3E0FAA3E0FB12036070060D
:100FAA0090648A0210E490648AE0FCA3E0FDA3E066
:100FBA00FEA3E0FF120346FBA3E0FCA3E0FDA3E0CF
:100FCA00FEA3E0FF120346FFB40108E4FFFE7D80A2
:100FDA007C3F22EF64046029EB64046024EBB401D3
:100FEA0030E4FFFEFDFC90648EE0F8A3E0F9A3E094
:100FFA00FAA3E0FB12036060084006E4FFFEFDFC72
:10100A002290648E1205FCFFFFFFFF90648E02108F
:10101A00E4E4906492F0A3F0FFFEFDFC90648AE0A1
:10102A00F8A3E0F9A3E0FAA3E0FB120360505F9093
:10103A00648EE0FCA3E0FDA3E0FEA3E0FF1202C57C
:10104A00906492EEF0A3EFF0FDCCEECCEC1203EF3D
:10105A00C8ECC8C9EDC9CAEECACBEFCB90648EE022
:10106A00FCA3E0FDA3E0FEA3E0FF12002AE4FBFAE2
:10107A00F9F8120360708A90648AE0FCA3E0FDA389
:10108A00E0FEA3E0FF1203D990648A1205F090648F
:10109A008AE0FCA3E0FDA3E0FEA3E0FF12151E9088
:1010AA00648EE0F8A3E0F9A3E0FAA3E0FB12011FC3
:1010BA0012197B90648E1205F0906493E030E01769
:1010CA0090648EE0FCA3E0FDA3E0FEA3E0FF120320
:1010DA00D990648E1205F090648EE0FCA3E0FDA323
:0610EA00E0FEA3E0FF227E
:1002FC00E9D2E7C933E833F892D5EDD2E7CD33EC48
:07030C0033FC5002B2D522C0
:10031300EC30E7100FBF000C0EBE00080DBD00044B
:100323000BEB6014A2D5EB13FCED92E7FD2274FFF7
:10033300FCFDFEFF22E480F8A2D574FF13FC7D8050
:03034300E480EF64
:10034600ED33EC33601004700FED547F70057402CA
:0A03560092E0227404220422E42243
:1003600074F8CC6480CCC86480C8F58204604FC344
:10037000EB9FF5F0EA9E42F0E99D42F0E89C45F0E3
:10038000603C501DE5825FFFE582D313CB5BCBF46D
:100390002B5582FB50280ABA002409B90020088096
:1003A0001DE5825BFBE582D313CF5FCFF4C3132F30
:1003B0005582FF50090EBE00050DBD00010CC3EBB8
:1003C0009FF5F0EA9E42F0E99D42F0E89C45F0601E
:0903D00007CC4820E701B3EC2240
:1003D900ED33EC33600A047003BD8004ECB2E7FC32
:0103E90022F1
:1003EA0075F020800E75F010800575F0087D007E8E
:1003FA00007F003392D530D503120592EC334010BA
:10040A00EF33FFEE33FEED33FDEC33FCD5F0ED2296
:0E041A00E5F0247EA2D513CC92E7CDCEFF22D2
:1019430033DA929E35B16011377FE5FE3921848900
:101953003AAEC3FF3C1D955B3D6358473E75FDF0B2
:101963003F3172183F800000C2D502033B020331AE
:10197300BD80FA50F3020338ED33EC330460F17B9E
:101983003B7AAA79B8783F12011FED33EC3392D535
:10199300247B5011A2D570DB500BED4480240450FE
:1019A30004A2D580CEEFFBEEFAEDF9ECF81202C5F6
:1019B300EFF582F404FC1203F412002EC082901996
:1019C300437409120437ED33CC33D0F092D525F0AC
:0A19D300A2D57001C313CC13FD224E
:1014EA003E9248DA3ECCCCCD3F2AAAAB400000005F
:1014FA003F8000003F9837F03FB504F33FD744FCE4
:10150A003E3172173EB172173F0515913EDE5BD927
:10151A00D2088002C208EDD2E7F8CD33EC3304706A
:10152A000BBD800592D502033B02033140FBD31465
:10153A0060F2F5F07C3FEE7A00C39496C8948B4033
:10154A00230AC89469C8941A401A0AC89468C894A5
:10155A001F40110AC8945AC89425400805F07A0019
:10156A00CDC2E7CDC0F09064941205F0EA2323C0FF
:10157A00E024FAF582E43414F5831205E012002E11
:10158A00ECC0E0EDC0E0EEC0E0EFC0E01205C490B0
:10159A0064941205D412002AD0E0FBD0E0FAD0E01D
:1015AA00F9D0E0B2E7F81202289064941205F0909C
:1015BA0014EA74031204289064941205D412011FC9
:1015CA00D0E0600F2406F582E43415F5831205E0B5
:1015DA0012002E9064941205F0D0E0C3947FFDE4CB
:1015EA009400FC1203EF7B187A727931783F12016A
:1015FA001F9064941205D412002E30080B7BD97AFE
:09160A005B79DE783E12011F221B
:10042800C0E0EFFBEEFAEDF9ECF812011FD0E0F5B1
:10043800F0EFFBEEFAEDF9ECF81205C4A3A3A3A3C1
:10044800E8C0E0E9C0E0EAC0E0EBC0E0C0F01201BB
:100458001F1205E0A3A3A3A312002ED0F0D0E0FB47
:0D046800D0E0FAD0E0F9D0E0F8D5F0D422D1
:1019E90002189AE493A3F8E493A34003F68001F262
:1019F90008DFF48029E493A3F85407240CC8C333FF
:101A0900C4540F4420C8834004F456800146F6DFCD
:101A1900E4800B010204081020408090065AE47EFD
:101A2900019360BCA3FF543F30E509541FFEE493C2
:101A3900A360010ECF54C025E060A840B8E493A389
:101A4900FAE493A3F8E493A3C8C582C8CAC583CAB4
:101A5900F0A3C8C582C8CAC583CADFE9DEE780BE6C
:010B480000AC
:10047500E88FF0A4CC8BF0A42CFCE98EF0A42CFC26
:100485008AF0EDA42CFCEA8EF0A4CDA8F08BF0A4A4
:100495002DCC3825F0FDE98FF0A42CCD35F0FCEB03
:1004A5008EF0A4FEA9F0EB8FF0A4CFC5F02ECD39C8
:0F04B500FEE43CFCEAA42DCE35F0FDE43CFC2235
:1004C40075F008758200EF2FFFEE33FECD33CDCCEF
:1004D40033CCC58233C5829BED9AEC99E582984072
:1004E4000CF582EE9BFEED9AFDEC99FC0FD5F0D64F
:1004F400E4CEFBE4CDFAE4CCF9A88222B800C1B979
:100504000059BA002DEC8BF084CFCECDFCE5F0CBB6
:10051400F97818EF2FFFEE33FEED33FDEC33FCEBEF
:1005240033FB10D703994004EB99FB0FD8E5E4F9AA
:10053400FA227818EF2FFFEE33FEED33FDEC33FC97
:10054400C933C910D7059BE99A4007EC9BFCE99A8B
:10055400F90FD8E0E4C9FAE4CCFB2275F010EF2FD0
:10056400FFEE33FEED33FDCC33CCC833C810D707D0
:100574009BEC9AE899400AED9BFDEC9AFCE899F80B
:0E0584000FD5F0DAE4CDFBE4CCFAE4C8F9229E
:0E059200C3E49FFFE49EFEE49DFDE49CFC227A
:1005A000EB9FF5F0EA9E42F0E99D42F0E89C45F0B1
:0105B0002228
:1005B100E8600FECC313FCED13FDEE13FEEF13FF28
:0305C100D8F1224C
:1005C400E493FC740193FD740293FE740393FF227D
:0C05D400E0F8A3E0F9A3E0FAA3E0FB22AA
:1005E000E493F8740193F9740293FA740393FB2271
:0C05F000ECF0A3EDF0A3EEF0A3EFF0227E
:1005FC00A8828583F0D083D08212061312061312C0
:10060C000613120613E473E493A3C583C5F0C583E4
:10061C00C8C582C8F0A3C583C5F0C583C8C582C848
:01062C0022AB
:10062D00EC8EF0A4CCC5F0CCCDF8EFA4CEC5F02D5A
:10063D00FDE43CFCE8A42EC8C5F03DFDE43CFCEF18
:0D064D00A4FFE5F028FEE43DFDE43CFC22A6
:00000001FF
