:0300000002177D67
:0C177D00787FE4F6D8FD7581200217C4C7
:0C000300000000000000000000000000F1
:0B000F00EF1FAC0670011E4C70F622C3
:101A6D00AB07AA06EB1BAE0270011A4E60097FAAE6
:081A7D007E0512000F80ED222E
:1014D200907120E04480F07F057E0012000FE4FF4F
:1014E200FE121A6D75A75575AC589071327450F092
:1014F2009071307403F0907136742FF07F18EF24DE
:1015020066FDE434718D82F583E4F00FEFB433EEBF
:10151200904011E4935407FF90711CE054F84FF08F
:10152200904017E493547FFF90711DE054804FF078
:10153200904010E493FF5401C43333335480FE903F
:101542007123E0547F4EF0EFC313543F4440FFA396
:10155200E054804FF0904012E493FF540FFE9071DC
:1015620046E054F04EF0EFC4540FFF90714FE05438
:10157200F04FF0904013E493543FFF907140E054D9
:10158200C04FF0904014E493907126F0904015E41F
:0E15920093907128F0904016E49390712AF027
:0115A0002228
:070A9B00446284428C00005C
:1015A100C3906046E09470906045E0941740030258
:1015B1001636E4FFFE7D807CBF906284E0F8A3E0F4
:1015C100F9A3E0FAA3E0FB12002EE4FBFA79A87874
:1015D10042120228E4FBFA798078BF12002E906251
:1015E100881205F0906284E0FCA3E0FDA3E0FEA375
:1015F100E0FFE4FBFAF9783F12002E9062841205B5
:10160100F0906288E0FCA3E0FDA3E0FEA3E0FF9080
:1016110062721205F07F007E007DA07C40120D6D8C
:10162100E4FBFA7970784212011F1202C5906045FD
:10163100EEF0A3EFF0C3906046E09470906045E057
:0C164100941740077417F0A37470F02297
:1016E70075D9DD1214D275D95590715EE054FEF0AC
:1016F70075D9BB121A35121A5212187512196C12B3
:101707001A15C294E4906045F0A3F090629B741799
:10171700F0A37470F090629BE0FEA3E0FFC39060BB
:1017270046E09F906045E09E503B121ABF12129F01
:10173700300125C201C3906293E094C3906292E0A6
:101747009408401490629BE0FEA3E0FF906046E09F
:101757009F906045E09E500D300405C2041215A10C
:10176700121AAD80B0121ABF12129F1213C61219A5
:06177700E212001A80EFEF
:100AA200426045000042626B1770426267177042F3
:100AB20060430000426265000042626310004162CE
:100AC2006D00621C60470000000000000000000092
:100AD2000000000000000000000000000000000014
:100AE2000000000000000000000000000000000004
:100AF20000000000000000000000000000000000F4
:100B020000000000000000000000000000000000E3
:100CE2000000426269000060406000FFFF000000F7
:100CF20000000000000000000000000000000000F2
:100D020000000000000000000000000000000000E1
:100D120000000000000000000000000000000000D1
:100D2200000000000000000000000041604000419F
:090D320060410041604200C1056E
:101875007812E24401F278567407F278277417F269
:1018850018746FF27833E4F218F27819E24401F231
:101895007811E24401F27817E24401F27812E24449
:1018A50001F27814E24401F27818E24401F278D3A7
:1018B500E254CFF2E24410F2E254FCF2E24401F2C7
:0C18C50090718AE4F090718C740AF0229B
:101AAD00906045E07833F2A3E018F27817E2440134
:021ABD00F22213
:10065A0090626E1205FC00000000906000E0F470E9
:09066A0003A3E0F460030206FFA3
:10067300906272F0A3F0906272E0FEA3E0FFC39475
:1006830020EE9400502E906292E0FCA3E0FDEF2553
:10069300E0FFEE33FE74002FF58274603EF583ECC9
:1006A300F0A3EDF0906273E004F070CA906272E020
:1006B30004F080C2E4906272F0A3F0906272E0FEF4
:1006C300A3E0FFC3940EEE9401400302076090621F
:1006D30092E0FCA3E0FDEF25E0FFEE33FE74472F2D
:1006E300F58274603EF583ECF0A3EDF0906273E065
:0C06F30004F070C7906272E004F080BF59
:1006FF00906040E025E02400F582E43460F583E06B
:10070F00FFA3E0906272CFF0A3EFF0906292E0FE51
:10071F00A3E0FF906273E02FF0906272E03EF0E092
:10072F00C313FEA3E013FF906272EEF0A3EFF090FD
:10073F006040E025E02400F582E43460F583EEF0BC
:10074F00A3EFF0906040E004F0E0C394204002E497
:01075F00F0A9
:10076000E4906272F0A3F090626EE0F8A3E0F9A367
:10077000E0FAA3E0FB906273E025E0FF906272E094
:1007800033FE74002FF58274603EF583E0FEA3E033
:10079000FFE4FCFDEB2FFFEA3EFEED39FDEC38FCFB
:1007A00090626E1205F0906273E004F07006906241
:1007B00072E004F0906272E07004A3E0642070A71D
:1007C00090626EE0FCA3E0FDA3E0FEA3E0FF7805ED
:0907D0001205B190626E1205F0F1
:1007D90090626EA3A3E0FEA3E0FDAC0690626AE01E
:1007E90025E0FF906269E033FE74472FF58274605B
:1007F9003EF583ECF0A3EDF090626AE004F0700638
:10080900906269E004F0C390626AE0940E906269B4
:09081900E094014004E4F0A3F0B6
:10082200E4906272F0A3F0906265F0A3F0906263CC
:100832007410F0A3E4F0906272E0FEA3E0FFC394B0
:100842000EEE94014003020906EF25E0FFEE33FEAF
:1008520074472FF58274603EF583E0FCA3E0FD90BF
:100862006265E0FAA3E0FBD3ED9BEC9A4016744775
:100872002FF58274603EF583E0FFA3E0906265CFBE
:10088200F0A3EFF0906273E025E0FF906272E03334
:10089200FE74472FF58274603EF583E0FCA3E0FD11
:1008A200906263E0FAA3E0FBC3ED9BEC9A501674EE
:1008B200472FF58274603EF583E0FFA3E090626308
:1008C200CFF0A3EFF0906263E0FEA3E0FFC390627B
:1008D20066E09FFF906265E09EFED3EF9450EE9437
:1008E20000400890626D741EF0800890626DE060B6
:1008F2000214F0906273E004F07006906272E004F9
:04090200F0020838BF
:10090600E47F8B7E06FDFC90626EE0F8A3E0F9A31F
:10091600E0FAA3E0FBC31205A0502020050302095C
:10092600B1E47F8B7E06FDFC90626EE0F8A3E0F9F1
:10093600A3E0FAA3E0FB1205A04070E4906041F04A
:10094600A3F0D20590626DE0FFB41E3214F0D3908E
:10095600626CE094B890626BE0940B400CA3E024C8
:10096600FFF090626BE034FFF0C390626CE094B8E5
:1009760090626BE0940B4003020A9A020A3AEF6017
:1009860003020A9A200003020A9AC200C390626C0C
:10099600E0947090626BE094174003020A9AA3E019
:1009A60004F0700690626BE004F022E47FC37E05DB
:1009B600FDFC90626EE0F8A3E0F9A3E0FAA3E0FB89
:1009C600D31205A04076E47F6D7E06FDFC90626E34
:1009D600E0F8A3E0F9A3E0FAA3E0FBD31205A040F8
:1009E60008906041E064047053200103020A9AC231
:1009F60001906041E0C394045003E004F0E4906089
:100A060042F0C205D390626CE094B890626BE094B9
:100A16000B40028069C390626CE094B890626BE010
:100A2600940B500DA3E004F0700690626BE004F0A6
:100A36002290626B740BF0A374B8F022E47FC37E3D
:100A460005FDFC90626EE0F8A3E0F9A3E0FAA3E0EE
:100A5600FBD31205A04006906042E06037300134B7
:100A6600C2019060427401F0E4906041F0C205D387
:100A760090626CE0940890626BE09407400DA3E0EE
:100A860024FEF090626BE034FFF02290626B7407F4
:040A9600F0A304F0D5
:010A9A002239
:03001A00C294226B
:01001D0022C0
:0F0D3B004162940041629100C106426292000041
:101A350078F2E24403F278E3E244C0F278F0E2544B
:0D1A4500FDF208E254FDF208E2440CF2222A
:10180900906291E06F6064EFF0786AE24478F27573
:1018190091FFEF24FE601D14603024027046907120
:1018290023E054F8F0E0441EF09071227407F0753B
:101839009918802A907123E054D8F0E0441DF09063
:1018490071227407F07599178014907123E054F888
:10185900F0E0441EF09071227407F07599197869C7
:0B186900E24448F27F017E00121A6D7D
:011874002251
:100ED300E4906277F0A3F0A3F090627A1205FC002D
:100EE300000000E490627EF0A3F074FF906280F053
:100EF300A3F0E4906277F07869E24401F2786BE260
:100F030030E1FAAF93EF75F010A4FFE594C4540FEA
:100F1300FDEF4DFF906278E5F0F0A3EFF07402F27D
:100F2300906277E0C39402406D90627EE0FEA3E09E
:100F3300FFD3906279E09F906278E09E400CE0FFDF
:100F4300A3E090627ECFF0A3EFF0906280E0FEA377
:100F5300E0FFC3906279E09F906278E09E500CE0DE
:100F6300FFA3E0906280CFF0A3EFF090627AE0F805
:100F7300A3E0F9A3E0FAA3E0FB906278E0FEA3E02C
:100F8300FFE4FCFDEB2FFFEA3EFEED39FDEC38FC00
:100F930090627A1205F0906277E004F0E0641460E6
:100FA30003020EFA90627AE0FCA3E0FDA3E0FEA345
:100FB300E0FFC006C00790627EE0FEA3E0FBAA0646
:100FC300D007D006C3EF9BFFEE9AFEED9400FDEC35
:100FD3009400FC90627A1205F090627AE0FCA3E040
:100FE300FDA3E0FEA3E0FFC006C007906280E0FE21
:100FF300A3E0FBAA06D007D006C3EF9BFFEE9AFE41
:10100300ED9400FDEC9400FC90627A1205F090627E
:101013007AE0FCA3E0FDA3E0FEA3E0FF7804120561
:10102300B1906278EEF0A3EFF0906278E0FEA3E077
:01103300FFBD
:011034002299
:1019AC009062731205FC00000000120ED3E4FCFDE3
:1019BC009062731205F0E47F0CFEFDFC906273E004
:1019CC00F8A3E0F9A3E0FAA3E0FB120475E47B0AA8
:0619DC00FAF9F802050013
:1013C60090626E1205FC00000000906294E06402D8
:1013D60070030214D17F011218091219AC90626EC3
:1013E6001205F0906294E070587FEA7E0BFDFC9047
:1013F600626EE0F8A3E0F9A3E0FAA3E0FBC31205EE
:03140600A0503EB5
:10140900E4906272F0F01219AC90626E1205F0E489
:101419007FEA7E0BFDFC90626EE0F8A3E0F9A3E0A1
:10142900FAA3E0FBD31205A04006E4906294F022EF
:0E143900906272E004F0E0C3940A40CA806240
:0B144700906294E0640160030214D185
:1014520020060FD2069062951205FC0000000012D1
:101462001AE0E47F307E75FDFC906295E0F8A3E01F
:0D147200F9A3E0FAA3E0FBC31205A040526D
:10147F00E4906272F0F01219AC90626E1205F0E413
:10148F007FEA7E0BFDFC90626EE0F8A3E0F9A3E02B
:10149F00FAA3E0FBD31205A040079062947401F009
:1014AF0022906272E004F0E0C3940A40C990629403
:1014BF007402F0121A999062951205FC0000000058
:0214CF00C20653
:0114D10022F8
:1019E200906294E0700512065A8024906294E0B4EA
:1019F200010C90626B740BF0A374B8F080119062CA
:101A020094E0B4020D90626B7405F0A374DCF012E2
:031A1200001D2292
:101ABF007F02121809120ED3906292EEF0A3EFF08C
:011ACF0022F4
:0C0D4A0041629A00C10341629900C1049B
:101A520043A820D2AF75D10178957401F21874763B
:0B1A6200F2789174A0F21874FDF222DB
:101AD0007890E2541FF2E244C0F243A820D2AF2231
:101A85007890E2541FF2E244A0F27892E4F208F270
:041A950053A8DF2251
:03001E000219269E
:10192600C0E0C083C082C0D075D000C0007891E20C
:1019360030E728E24480F290629AE004F0906299DF
:10194600E004F0A3E0C394194004E4F0D2039062EB
:1019560099E0C3940D4004E4F0D204D000D0D0D076
:0619660082D083D0E032C4
:070D5600446295000000005B
:10196C00E5B154CF42B1789CE254E3F2E24414F274
:10197C00E254FCF2E24401F208E24480F2E2442038
:10198C00F278A1743BF2187460F2789EE4F208F2DB
:10199C00789CE2541FF2E244A0F253A8BFD2AF22CB
:101AE000789CE2541FF2E244C0F243A840D2AF22F5
:101A9900789CE2541FF2E244A0F2789EE4F208F244
:041AA90053A8BF225D
:030021000218D1F1
:1018D100C0E0C0F0C083C082C0D075D000C000C0DD
:1018E10004C005C006C007789DE230E723E24480CA
:1018F100F2906295E0FCA3E0FDA3E0FEA3E02401E9
:10190100FFE43EFEE43DFDE43CFC9062951205F0EF
:10191100D007D006D005D004D000D0D0D082D0835B
:05192100D0F0D0E0321F
:0A0D5D00C100C10141629000C10213
:101A150043A901D2AF75D104907105E4F09071042A
:101A25007424F090710174A0F090710074FDF0229F
:0300240002103592
:10103500C0E0C0F0C083C082C0D075D000C000C081
:1010450001C002C003C004C005C006C007907101FD
:10105500E020E70302115BE04480F090628DE0043C
:10106500F0700690628CE004F090628FE004F070FE
:101075000690628EE004F0906290E004F0C3906206
:101085008FE0940D90628EE094004006E4F0A3F0AA
:10109500D201C390628DE0940D90628CE094004083
:1010A50006E4F0A3F0D200906290E0C394055003EB
:0310B50002115BCA
:1010B80090626BE0FEA3E0FF90629BE0FCA3E0FD82
:1010C80012062DE47B707A17F9F8120500906282F7
:1010D800EEF0A3EFF0906290E4F0906045E0FEA39C
:1010E800E0FF906282E0FCA3E0FDD39FEC9E4010FD
:1010F800906046E004F07006906045E004F0801DC2
:10110800906045E0FEA3E0FFC3ED9FEC9E500E907B
:101118006046E024FFF0906045E034FFF0121AAD1D
:10112800D3906046E09400906045E09400500F78BA
:1011380018E254FEF290718CE4F0D2968015C390B8
:101148006045E09400400C90718C740AF07818E2C5
:031158004401F25D
:10115B00D007D006D005D004D003D002D001D000E8
:0B116B00D0D0D082D083D0F0D0E03292
:050D670042629B000048
:10129F00E490626EF0A3F07F03121809120ED39040
:1012AF00626EEEF0A3EFF0D390626FE094F890626D
:1012BF006EE094015008E490629BF0A3F022D3906B
:1012CF00626FE094FE90626EE09404501DE0FEA306
:1012DF00E0FF7C2E7DE012062DE47B0AFAF9F8126E
:1012EF000500E47BFE7A040213B8D390626FE0949A
:1012FF00C290626EE09409501DE0FEA3E0FF7C5D9A
:10130F007DC012062DE47B0AFAF9F8120500E47B82
:10131F00C27A090213B8D390626FE0945190626E53
:10132F00E0940A501CE0FEA3E0FF7C177D701206CC
:10133F002DE47B02FAF9F8120500E47B517A0A805A
:10134F0068D390626FE0949A90626EE0940D501C97
:10135F00E0FEA3E0FF7C8C7DA012062DE47B0AFA51
:10136F00F9F8120500E47B9A7A0D803DD390626FF5
:10137F00E094F790626EE0940F501AE0FEA3E0FF46
:10138F007CBB7D8012062DE47B0AFAF9F81205006A
:10139F00E47BF7801290626EE0FEA3E0FF7C177D86
:1013AF007012062DE47BFF7A0FF9F8120500906298
:0613BF009BEEF0A3EFF02D
:0113C5002205
:10002700020331E86480F8E933E83360110460F0D3
:10003700ED33EC337009E8FCE9FDEAFEEBFF22043F
:1000470060DED3EB9FEA9EE99DE8C2E78CF0C2F73A
:1000570095F0400CE8CCF8E9CDF9EACEFAEBCFFB06
:100067001202FC85D0F05804700320D5B3E8047061
:10007700075002B2D502033B92D5EC0460F7E4CCFB
:10008700C0E0C398F8603B94186008400DD0E0FBCF
:10009700020313E4FBFAC9FC8028E830E406E4C94C
:1000A700FBE4CAFCE830E305E4C9CACBFCE8540723
:1000B7006010F8C3E913F9EA13FAEB13FBEC13FC2E
:1000C700D8F130F52FC3E49CFCEF9BFFEE9AFEEDD1
:1000D70099FDD0E0FBEF4E4D4C701222DB0302037B
:1000E70038EC2CFCEF33FFEE33FEED33FDED30E75C
:1000F700EB020313EF2BFFEE3AFEED39FDD0E0FBE9
:1001070050130BBB000302033BED13FDEE13FEEF91
:0801170013FFEC13FC020313BB
:10011F00EC4D6011E8497017ED33EC3304600DE4DA
:10012F00FCFFFEFD22E933E8330470F802033112BD
:10013F0002FC58046009E4CC2481500628500902BF
:10014F00033B284003020338C0E0EB4A7044B980F8
:10015F0006D0E0FB020327EF4E701CBD8008EBFFBB
:10016F00EAFEE9FD80EBE98DF0A4FEE5F00202085E
:10017F00E9CDF9EAFEEBFFEF89F0A4FCE5F0CE89BB
:10018F00F0A42EFFE435F0CD89F0A42DFEE435F078
:10019F008067EF4E7005BD80D780C3EF8BF0A4ACA6
:1001AF00F0EE8BF0A42CFCE435F0F8EF8AF0A42CE1
:1001BF00E5F038FCE433CB8DF0A42CFCE5F03BF8F4
:1001CF00EE8AF0A42CFCE5F038F8E433CF89F0A4E4
:1001DF002CFCE5F038CF3400CE89F0A42FFFE5F0EA
:1001EF003EFEE433C98DF0A42EFEE5F039CD8AF042
:1001FF00A42FFFE5F03EFEE43DFD33D0E0FB5007BA
:10020F000BBB000F02033BEC2CFCEF33FFEE33FE76
:06021F00ED33FD020313A4
:1002250002033BEC5D046005E859047003020331E9
:100235001202FC580460F6EC4860F2EC7004FDFE16
:10024500FF22C860DB2481C85009C39860025006AC
:100255000203389850CAF582E9294B4A7005AB82EA
:1002650002032775F0007C1A7880C3EF9BEE9AEDA8
:1002750099400DC3EF9BFFEE9AFEED99FDE842F024
:10028500DC23ACF0D0E0FFD0E0FED0E0FDAB822077
:10029500E7101BEB60BAEC2CFCEF33FFEE33FEED01
:1002A50033FD020313E803F830E705C0F075F000ED
:1002B500EF2FFFEE33FEED33FD40B830E7C280AAE5
:1002C500EDD2E7CD33EC3392D524814006E4FFFE31
:1002D500FDFC22FCE4CFCECDCC24E0501174FF8090
:1002E500EDC3CC13CCCD13CDCE13CECF13CF04702D
:0702F500F030D5DE02059296
:100D6D0090626E1205F0E4FFFE7D807C3F90626E16
:100D7D00E0F8A3E0F9A3E0FAA3E0FB12036070062C
:100D8D0090626E020EC790626EE0FCA3E0FDA3E0E0
:100D9D00FEA3E0FF120346FBA3E0FCA3E0FDA3E0EE
:100DAD00FEA3E0FF120346FFB40108E4FFFE7D80C1
:100DBD007C3F22EF64046029EB64046024EBB401F2
:100DCD0030E4FFFEFDFC906272E0F8A3E0F9A3E0D1
:100DDD00FAA3E0FB12036060084006E4FFFEFDFC91
:100DED00229062721205FCFFFFFFFF906272020EED
:100DFD00C7E4906276F0A3F0FFFEFDFC90626EE01A
:100E0D00F8A3E0F9A3E0FAA3E0FB120360505F90B2
:100E1D006272E0FCA3E0FDA3E0FEA3E0FF1202C5B9
:100E2D00906276EEF0A3EFF0FDCCEECCEC1203EF7A
:100E3D00C8ECC8C9EDC9CAEECACBEFCB906272E05F
:100E4D00FCA3E0FDA3E0FEA3E0FF12002AE4FBFA01
:100E5D00F9F8120360708A90626EE0FCA3E0FDA3C6
:100E6D00E0FEA3E0FF1203D990626E1205F09062CE
:100E7D006EE0FCA3E0FDA3E0FEA3E0FF1211AA903B
:100E8D006272E0F8A3E0F9A3E0FAA3E0FB12011F00
:100E9D001216859062721205F0906277E030E017BD
:100EAD00906272E0FCA3E0FDA3E0FEA3E0FF12035D
:100EBD00D99062721205F0906272E0FCA3E0FDA37E
:060ECD00E0FEA3E0FF229D
:1002FC00E9D2E7C933E833F892D5EDD2E7CD33EC48
:07030C0033FC5002B2D522C0
:10031300EC30E7100FBF000C0EBE00080DBD00044B
:100323000BEB6014A2D5EB13FCED92E7FD2274FFF7
:10033300FCFDFEFF22E480F8A2D574FF13FC7D8050
:03034300E480EF64
:10034600ED33EC33601004700FED547F70057402CA
:0A03560092E0227404220422E42243
:1003600074F8CC6480CCC86480C8F58204604FC344
:10037000EB9FF5F0EA9E42F0E99D42F0E89C45F0E3
:10038000603C501DE5825FFFE582D313CB5BCBF46D
:100390002B5582FB50280ABA002409B90020088096
:1003A0001DE5825BFBE582D313CF5FCFF4C3132F30
:1003B0005582FF50090EBE00050DBD00010CC3EBB8
:1003C0009FF5F0EA9E42F0E99D42F0E89C45F0601E
:0903D00007CC4820E701B3EC2240
:1003D900ED33EC33600A047003BD8004ECB2E7FC32
:0103E90022F1
:1003EA0075F020800E75F010800575F0087D007E8E
:1003FA00007F003392D530D503120592EC334010BA
:10040A00EF33FFEE33FEED33FDEC33FCD5F0ED2296
:0E041A00E5F0247EA2D513CC92E7CDCEFF22D2
:10164D0033DA929E35B16011377FE5FE39218489F9
:10165D003AAEC3FF3C1D955B3D6358473E75FDF0AB
:10166D003F3172183F800000C2D502033B020331A7
:10167D00BD80FA50F3020338ED33EC330460F17B97
:10168D003B7AAA79B8783F12011FED33EC3392D52E
:10169D00247B5011A2D570DB500BED4480240450F7
:1016AD0004A2D580CEEFFBEEFAEDF9ECF81202C5EF
:1016BD00EFF582F404FC1203F412002EC082901692
:1016CD004D7409120437ED33CC33D0F092D525F09B
:0A16DD00A2D57001C313CC13FD2247
:101176003E9248DA3ECCCCCD3F2AAAAB40000000D6
:101186003F8000003F9837F03FB504F33FD744FC5B
:101196003E3172173EB172173F0515913EDE5BD99F
:1011A600D2078002C207EDD2E7F8CD33EC330470E4
:1011B6000BBD800592D502033B02033140FBD314DD
:1011C60060F2F5F07C3FEE7A00C39496C8948B40AB
:1011D600230AC89469C8941A401A0AC89468C8941D
:1011E6001F40110AC8945AC89425400805F07A0091
:1011F600CDC2E7CDC0F09062781205F0EA2323C095
:10120600E02486F582E43411F5831205E012002EFF
:10121600ECC0E0EDC0E0EEC0E0EFC0E01205C49027
:1012260062781205D412002AD0E0FBD0E0FAD0E0B2
:10123600F9D0E0B2E7F81202289062781205F09031
:10124600117674031204289062781205D412011FD5
:10125600D0E0600F2492F582E43411F5831205E0A4
:1012660012002E9062781205F0D0E0C3947FFDE460
:101276009400FC1203EF7B187A727931783F1201E1
:101286001F9062781205D412002E30070B7BD97A94
:091296005B79DE783E12011F2293
:10042800C0E0EFFBEEFAEDF9ECF812011FD0E0F5B1
:10043800F0EFFBEEFAEDF9ECF81205C4A3A3A3A3C1
:10044800E8C0E0E9C0E0EAC0E0EBC0E0C0F01201BB
:100458001F1205E0A3A3A3A312002ED0F0D0E0FB47
:0D046800D0E0FAD0E0F9D0E0F8D5F0D422D1
:101789000216E7E493A3F8E493A34003F68001F279
:1017990008DFF48029E493A3F85407240CC8C33361
:1017A900C4540F4420C8834004F456800146F6DF30
:1017B900E4800B0102040810204080900A9BE47E1B
:1017C900019360BCA3FF543F30E509541FFEE49325
:1017D900A360010ECF54C025E060A840B8E493A3EC
:1017E900FAE493A3F8E493A3C8C582C8CAC583CA17
:1017F900F0A3C8C582C8CAC583CADFE9DEE780BECF
:010D6C000086
:10047500E88FF0A4CC8BF0A42CFCE98EF0A42CFC26
:100485008AF0EDA42CFCEA8EF0A4CDA8F08BF0A4A4
:100495002DCC3825F0FDE98FF0A42CCD35F0FCEB03
:1004A5008EF0A4FEA9F0EB8FF0A4CFC5F02ECD39C8
:0F04B500FEE43CFCEAA42DCE35F0FDE43CFC2235
:1004C40075F008758200EF2FFFEE33FECD33CDCCEF
:1004D40033CCC58233C5829BED9AEC99E582984072
:1004E4000CF582EE9BFEED9AFDEC99FC0FD5F0D64F
:1004F400E4CEFBE4CDFAE4CCF9A88222B800C1B979
:100504000059BA002DEC8BF084CFCECDFCE5F0CBB6
:10051400F97818EF2FFFEE33FEED33FDEC33FCEBEF
:1005240033FB10D703994004EB99FB0FD8E5E4F9AA
:10053400FA227818EF2FFFEE33FEED33FDEC33FC97
:10054400C933C910D7059BE99A4007EC9BFCE99A8B
:10055400F90FD8E0E4C9FAE4CCFB2275F010EF2FD0
:10056400FFEE33FEED33FDCC33CCC833C810D707D0
:100574009BEC9AE899400AED9BFDEC9AFCE899F80B
:0E0584000FD5F0DAE4CDFBE4CCFAE4C8F9229E
:0E059200C3E49FFFE49EFEE49DFDE49CFC227A
:1005A000EB9FF5F0EA9E42F0E99D42F0E89C45F0B1
:0105B0002228
:1005B100E8600FECC313FCED13FDEE13FEEF13FF28
:0305C100D8F1224C
:1005C400E493FC740193FD740293FE740393FF227D
:0C05D400E0F8A3E0F9A3E0FAA3E0FB22AA
:1005E000E493F8740193F9740293FA740393FB2271
:0C05F000ECF0A3EDF0A3EEF0A3EFF0227E
:1005FC00A8828583F0D083D08212061312061312C0
:10060C000613120613E473E493A3C583C5F0C583E4
:10061C00C8C582C8F0A3C583C5F0C583C8C582C848
:01062C0022AB
:10062D00EC8EF0A4CCC5F0CCCDF8EFA4CEC5F02D5A
:10063D00FDE43CFCE8A42EC8C5F03DFDE43CFCEF18
:0D064D00A4FFE5F028FEE43DFDE43CFC22A6
:00000001FF
