:030000000217C123
:0C17C100787FE4F6D8FD7581210218083D
:0C000300000000000000000000000000F1
:0B000F00EF1FAC0670011E4C70F622C3
:101AB100AB07AA06EB1BAE0270011A4E60097FAAA2
:081AC1007E0512000F80ED22EA
:10150300907120E04480F07F057E0012000FE4FF1D
:10151300FE121AB175A75575AC589071327450F01C
:101523009071307403F0907136742FF07F18EF24AC
:1015330066FDE434718D82F583E4F00FEFB433EE8E
:10154300904011E4935407FF90711CE054F84FF05E
:10155300904017E493547FFF90711DE054804FF047
:10156300904010E493FF5401C43333335480FE900E
:101573007123E0547F4EF0EFC313543F4440FFA365
:10158300E054804FF0904012E493FF540FFE9071AB
:1015930046E054F04EF0EFC4540FFF90714FE05407
:1015A300F04FF0904013E493543FFF907140E054A8
:1015B300C04FF0904014E493907126F0904015E4EE
:0E15C30093907128F0904016E49390712AF0F6
:0115D10022F7
:070A9B00446282428C00005E
:1015D200C3906046E09470906045E0941740030227
:1015E2001667E4FFFE7D807CBF906282E0F8A3E094
:1015F200F9A3E0FAA3E0FB12002EE4FBFA79A87843
:1016020042120228E4FBFA798078BF12002E90621F
:10161200861205F0906282E0FCA3E0FDA3E0FEA347
:10162200E0FFE4FBFAF9783F12002E906282120585
:10163200F0906286E0FCA3E0FDA3E0FEA3E0FF9051
:1016420062721205F07F007E007DA07C40120D6E5A
:10165200E4FBFA7970784212011F1202C5906045CC
:10166200EEF0A3EFF0C3906046E09470906045E026
:0C167200941740077417F0A37470F02266
:10167E0075D9DD12150375D95590715EE054FEF0E3
:10168E0075D9BB121A79121A961218B91219B0120C
:10169E001A59C294E4906045F0A3F090629A7417C0
:1016AE00F0A37470F0D20590629AE0FEA3E0FFC33F
:1016BE00906046E09F906045E09E503B121B0312E7
:1016CE000ED4300125C201C3906292E094C39062A1
:1016DE0091E09408401490629AE0FEA3E0FF9060BF
:1016EE0046E09F906045E09E500D300405C2041206
:1016FE0015D2121AF180B0906045E0FFA3E090621F
:10170E006BCFF0A3EFF0C205121B03120ED412130F
:09171E00F7121A2612001A80EFDE
:100AA200426045000042626B1770426267177042F3
:100AB20060430000426265000042626310004162CE
:100AC2006D00621C60470000000000000000000092
:100AD2000000000000000000000000000000000014
:100AE2000000000000000000000000000000000004
:100AF20000000000000000000000000000000000F4
:100B020000000000000000000000000000000000E3
:100CE2000000426269000060406000FFFF000000F7
:100CF20000000000000000000000000000000000F2
:100D020000000000000000000000000000000000E1
:100D120000000000000000000000000000000000D1
:100D2200000000000000000000000041604000419F
:090D320060410041604200C1066D
:1018B9007812E24401F278567407F278277417F225
:1018C90018746FF27833E4F218F27819E24401F2ED
:1018D9007811E24401F27817E24401F27812E24405
:1018E90001F27814E24401F27818E24401F278D363
:1018F900E254CFF2E24410F2E254FCF2E24401F283
:0C19090090718AE4F090718C740AF02256
:101AF100906045E07833F2A3E018F27817E24401F0
:021B0100F222CE
:10065A0090626E1205FC00000000906000E0F470E9
:09066A0003A3E0F460030206FFA3
:10067300906272F0A3F0906272E0FEA3E0FFC39475
:1006830020EE9400502E906291E0FCA3E0FDEF2554
:10069300E0FFEE33FE74002FF58274603EF583ECC9
:1006A300F0A3EDF0906273E004F070CA906272E020
:1006B30004F080C2E4906272F0A3F0906272E0FEF4
:1006C300A3E0FFC3940EEE9401400302076090621F
:1006D30091E0FCA3E0FDEF25E0FFEE33FE74472F2E
:1006E300F58274603EF583ECF0A3EDF0906273E065
:0C06F30004F070C7906272E004F080BF59
:1006FF00906040E025E02400F582E43460F583E06B
:10070F00FFA3E0906272CFF0A3EFF0906291E0FE52
:10071F00A3E0FF906273E02FF0906272E03EF0E092
:10072F00C313FEA3E013FF906272EEF0A3EFF090FD
:10073F006040E025E02400F582E43460F583EEF0BC
:10074F00A3EFF0906040E004F0E0C394204002E497
:01075F00F0A9
:10076000E4906272F0A3F090626EE0F8A3E0F9A367
:10077000E0FAA3E0FB906273E025E0FF906272E094
:1007800033FE74002FF58274603EF583E0FEA3E033
:10079000FFE4FCFDEB2FFFEA3EFEED39FDEC38FCFB
:1007A00090626E1205F0906273E004F07006906241
:1007B00072E004F0906272E07004A3E0642070A71D
:1007C00090626EE0FCA3E0FDA3E0FEA3E0FF7805ED
:0907D0001205B190626E1205F0F1
:1007D90090626EA3A3E0FEA3E0FDAC0690626AE01E
:1007E90025E0FF906269E033FE74472FF58274605B
:1007F9003EF583ECF0A3EDF090626AE004F0700638
:10080900906269E004F0C390626AE0940E906269B4
:09081900E094014004E4F0A3F0B6
:10082200E4906272F0A3F0906265F0A3F0906263CC
:100832007410F0A3E4F0906272E0FEA3E0FFC394B0
:100842000EEE94014003020906EF25E0FFEE33FEAF
:1008520074472FF58274603EF583E0FCA3E0FD90BF
:100862006265E0FAA3E0FBD3ED9BEC9A4016744775
:100872002FF58274603EF583E0FFA3E0906265CFBE
:10088200F0A3EFF0906273E025E0FF906272E03334
:10089200FE74472FF58274603EF583E0FCA3E0FD11
:1008A200906263E0FAA3E0FBC3ED9BEC9A501674EE
:1008B200472FF58274603EF583E0FFA3E090626308
:1008C200CFF0A3EFF0906263E0FEA3E0FFC390627B
:1008D20066E09FFF906265E09EFED3EF9450EE9437
:1008E20000400890626D741EF0800890626DE060B6
:1008F2000214F0906273E004F07006906272E004F9
:04090200F0020838BF
:10090600E47F8B7E06FDFC90626EE0F8A3E0F9A31F
:10091600E0FAA3E0FBC31205A0502020060302095B
:10092600B1E47F8B7E06FDFC90626EE0F8A3E0F9F1
:10093600A3E0FAA3E0FB1205A04070E4906041F04A
:10094600A3F0D20690626DE0FFB41E3214F0D3908D
:10095600626CE094B890626BE0940B400CA3E024C8
:10096600FFF090626BE034FFF0C390626CE094B8E5
:1009760090626BE0940B4003020A9A020A3AEF6017
:1009860003020A9A200003020A9AC200C390626C0C
:10099600E0947090626BE094174003020A9AA3E019
:1009A60004F0700690626BE004F022E47FC37E05DB
:1009B600FDFC90626EE0F8A3E0F9A3E0FAA3E0FB89
:1009C600D31205A04076E47F6D7E06FDFC90626E34
:1009D600E0F8A3E0F9A3E0FAA3E0FBD31205A040F8
:1009E60008906041E064047053200103020A9AC231
:1009F60001906041E0C394045003E004F0E4906089
:100A060042F0C206D390626CE094B890626BE094B8
:100A16000B40028069C390626CE094B890626BE010
:100A2600940B500DA3E004F0700690626BE004F0A6
:100A36002290626B740BF0A374B8F022E47FC37E3D
:100A460005FDFC90626EE0F8A3E0F9A3E0FAA3E0EE
:100A5600FBD31205A04006906042E06037300134B7
:100A6600C2019060427401F0E4906041F0C206D386
:100A760090626CE0940890626BE09407400DA3E0EE
:100A860024FEF090626BE034FFF02290626B7407F4
:040A9600F0A304F0D5
:010A9A002239
:03001A00C294226B
:01001D0022C0
:0F0D3B004162930041629000C107426291000043
:101A790078F2E24403F278E3E244C0F278F0E25407
:0D1A8900FDF208E254FDF208E2440CF222E6
:10184D00906290E06F6064EFF0786AE24478F27530
:10185D0091FFEF24FE601D146030240270469071DC
:10186D0023E054F8F0E0441EF09071227407F075F7
:10187D009918802A907123E054D8F0E0441DF0901F
:10188D0071227407F07599178014907123E054F844
:10189D00F0E0441EF09071227407F0759919786983
:0B18AD00E24448F27F017E00121AB1F5
:0118B800220D
:10103800E4906277F0A3F0A3F090627A1205FC00C6
:10104800000000E490627EF0A3F074FF906280F0EC
:10105800A3F0E4906277F07869E24401F2786BE2F9
:1010680030E1FAAF93EF75F010A4FFE594C4540F84
:10107800FDEF4DFF906278E5F0F0A3EFF07402F217
:10108800906277E0C39402406D90627EE0FEA3E038
:10109800FFD3906279E09F906278E09E400CE0FF79
:1010A800A3E090627ECFF0A3EFF0906280E0FEA311
:1010B800E0FFC3906279E09F906278E09E500CE078
:1010C800FFA3E0906280CFF0A3EFF090627AE0F89F
:1010D800A3E0F9A3E0FAA3E0FB906278E0FEA3E0C6
:1010E800FFE4FCFDEB2FFFEA3EFEED39FDEC38FC9A
:1010F80090627A1205F0906277E004F0E064146080
:101108000302105F90627AE0FCA3E0FDA3E0FEA377
:10111800E0FFC006C00790627EE0FEA3E0FBAA06DF
:10112800D007D006C3EF9BFFEE9AFEED9400FDECCE
:101138009400FC90627A1205F090627AE0FCA3E0D9
:10114800FDA3E0FEA3E0FFC006C007906280E0FEBA
:10115800A3E0FBAA06D007D006C3EF9BFFEE9AFEDA
:10116800ED9400FDEC9400FC90627A1205F0906218
:101178007AE0FCA3E0FDA3E0FEA3E0FF78041205FB
:10118800B1906278EEF0A3EFF0906278E0FEA3E011
:01119800FF57
:011199002233
:1019F0009062731205FC00000000121038E4FCFD38
:101A00009062731205F0E47F0CFEFDFC906273E0BF
:101A1000F8A3E0F9A3E0FAA3E0FB120475E47B0A63
:061A2000FAF9F8020500CE
:1013F70090626E1205FC00000000906293E06402A8
:1014070070030215027F0112184D1219F090626ED7
:101417001205F0906293E070587FEA7E0BFDFC9016
:10142700626EE0F8A3E0F9A3E0FAA3E0FBC31205BC
:03143700A0503E84
:10143A00E4906272F0F01219F090626E1205F0E414
:10144A007FEA7E0BFDFC90626EE0F8A3E0F9A3E070
:10145A00FAA3E0FBD31205A04006E4906293F022BF
:0E146A00906272E004F0E0C3940A40CA80620F
:0B147800906293E06401600302150223
:1014830020070FD2079062941205FC00000000129F
:101493001B24E47F307E75FDFC906294E0F8A3E0AA
:0D14A300F9A3E0FAA3E0FBC31205A040523C
:1014B000E4906272F0F01219F090626E1205F0E49E
:1014C0007FEA7E0BFDFC90626EE0F8A3E0F9A3E0FA
:1014D000FAA3E0FBD31205A040079062937401F0D9
:1014E00022906272E004F0E0C3940A40C9906293D3
:1014F0007402F0121ADD9062941205FC00000000E4
:02150000C20720
:0115020022C6
:101A2600906293E0700512065A8024906293E0B4A7
:101A3600010C90626B740BF0A374B8F08011906285
:101A460093E0B4020D90626B7405F0A374DCF0129F
:031A5600001D224E
:101B03007F0212184D121038906291EEF0A3EFF09D
:011B130022AF
:0C0D4A0041629D00C10341629C00C10495
:101A960043A820D2AF75D10178957401F2187476F7
:0B1AA600F2789174A0F21874FDF22297
:101B14007890E2541FF2E244C0F243A820D2AF22EC
:101AC9007890E2541FF2E244A0F27892E4F208F22C
:041AD90053A8DF220D
:03001E0002196A5A
:10196A00C0E0C083C082C0D075D000C0007891E2C8
:10197A0030E728E24480F290629DE004F090629C95
:10198A00E004F0A3E0C394194004E4F0D2039062A7
:10199A009CE0C3940D4004E4F0D204D000D0D0D02F
:0619AA0082D083D0E03280
:070D5600446294000000005C
:1019B000E5B154CF42B1789CE254E3F2E24414F230
:1019C000E254FCF2E24401F208E24480F2E24420F4
:1019D000F278A1743BF2187460F2789EE4F208F297
:1019E000789CE2541FF2E244A0F253A8BFD2AF2287
:101B2400789CE2541FF2E244C0F243A840D2AF22B0
:101ADD00789CE2541FF2E244A0F2789EE4F208F200
:041AED0053A8BF2219
:03002100021915AC
:10191500C0E0C0F0C083C082C0D075D000C000C098
:1019250004C005C006C007789DE230E723E2448085
:10193500F2906294E0FCA3E0FDA3E0FEA3E02401A5
:10194500FFE43EFEE43DFDE43CFC9062941205F0AC
:10195500D007D006D005D004D000D0D0D082D08317
:05196500D0F0D0E032DB
:0B0D5D00C100C10142628E0000C10213
:101A590043A901D2AF75D104907105E4F0907104E6
:101A69007424F090710174A0F090710074FDF0225B
:0300240002119A2C
:10119A00C0E0C0F0C083C082C0D075D000C000C01B
:1011AA0001C002C003C004C005C006C00790710197
:1011BA00E020E7030212B3E04480F090628BE0047F
:1011CA00F0700690628AE004F090628DE004F0709C
:1011DA000690628CE004F090628FE004F070069052
:1011EA00628EE004F0C390628DE0940D90628CE010
:1011FA0094004006E4F0A3F0D201C390628BE0941D
:10120A000D90628AE094004006E4F0A3F0D200C395
:10121A0090628FE0940590628EE09400500302126F
:10122A00B3E4F0A3F03005030212B3906045E0FE88
:10123A00A3E0FFD3906299E09F906298E09E4010ED
:10124A00906046E004F07006906045E004F0802368
:10125A00906045E0FEA3E0FFC3906299E09F906230
:10126A0098E09E500E906046E024FFF0906045E0C2
:10127A0034FFF0121AF1D3906046E0940090604572
:10128A00E09400500F7818E254FEF290718CE4F06A
:10129A00D2968015C3906045E09400400C90718C02
:1012AA00740AF07818E24401F2D007D006D005D0CB
:1012BA0004D003D002D001D000D0D0D082D083D0C5
:0412CA00F0D0E0324E
:050D680042629A000048
:100ED400E490626EF0A3F07F0312184D1210389064
:100EE400626EEEF0A3EFF0D390626FE094EA90624A
:100EF4006EE09401500AE490629AF0A3F0020FF4B9
:100F0400D390626FE094DD90626EE09404501DE033
:100F1400FEA3E0FF7C2E7DE012062DE47B0AFAF9A5
:100F2400F8120500E47BFE7A04020FDBD390626FB3
:100F3400E094EE90626EE09408501DE0FEA3E0FFA2
:100F44007C5D7DC012062DE47B0AFAF9F8120500D7
:100F5400E47BC27A09020FDBD390626FE0941290B3
:100F6400626EE0940B501CE0FEA3E0FF7C177D70E2
:100F740012062DE47B02FAF9F8120500E47B517A9B
:100F84000A8054D390626FE094BC90626EE0940C3B
:100F9400501CE0FEA3E0FF7C8C7DA012062DE47BB8
:100FA4000AFAF9F8120500E47B9A7A0D8029D390A5
:100FB400626FE0949190626EE0940F5029E0FEA37A
:100FC400E0FF7CBB7D8012062DE47B0AFAF9F8125F
:100FD4000500E47BF77A0FF9F812050090629AEEA7
:100FE400F0A3EFF0800A90629A7417F0A37470F083
:100FF40090626BE0FEA3E0FF90629AE0FCA3E0FD48
:1010040012062DE47B707A17F9F8120500906298A5
:10101400EEF0A3EFF0C3906299E0943E906298E002
:101024009417400F90626BE0FFA3E0906298CFF0BA
:03103400A3EFF037
:011037002296
:10002700020331E86480F8E933E83360110460F0D3
:10003700ED33EC337009E8FCE9FDEAFEEBFF22043F
:1000470060DED3EB9FEA9EE99DE8C2E78CF0C2F73A
:1000570095F0400CE8CCF8E9CDF9EACEFAEBCFFB06
:100067001202FC85D0F05804700320D5B3E8047061
:10007700075002B2D502033B92D5EC0460F7E4CCFB
:10008700C0E0C398F8603B94186008400DD0E0FBCF
:10009700020313E4FBFAC9FC8028E830E406E4C94C
:1000A700FBE4CAFCE830E305E4C9CACBFCE8540723
:1000B7006010F8C3E913F9EA13FAEB13FBEC13FC2E
:1000C700D8F130F52FC3E49CFCEF9BFFEE9AFEEDD1
:1000D70099FDD0E0FBEF4E4D4C701222DB0302037B
:1000E70038EC2CFCEF33FFEE33FEED33FDED30E75C
:1000F700EB020313EF2BFFEE3AFEED39FDD0E0FBE9
:1001070050130BBB000302033BED13FDEE13FEEF91
:0801170013FFEC13FC020313BB
:10011F00EC4D6011E8497017ED33EC3304600DE4DA
:10012F00FCFFFEFD22E933E8330470F802033112BD
:10013F0002FC58046009E4CC2481500628500902BF
:10014F00033B284003020338C0E0EB4A7044B980F8
:10015F0006D0E0FB020327EF4E701CBD8008EBFFBB
:10016F00EAFEE9FD80EBE98DF0A4FEE5F00202085E
:10017F00E9CDF9EAFEEBFFEF89F0A4FCE5F0CE89BB
:10018F00F0A42EFFE435F0CD89F0A42DFEE435F078
:10019F008067EF4E7005BD80D780C3EF8BF0A4ACA6
:1001AF00F0EE8BF0A42CFCE435F0F8EF8AF0A42CE1
:1001BF00E5F038FCE433CB8DF0A42CFCE5F03BF8F4
:1001CF00EE8AF0A42CFCE5F038F8E433CF89F0A4E4
:1001DF002CFCE5F038CF3400CE89F0A42FFFE5F0EA
:1001EF003EFEE433C98DF0A42EFEE5F039CD8AF042
:1001FF00A42FFFE5F03EFEE43DFD33D0E0FB5007BA
:10020F000BBB000F02033BEC2CFCEF33FFEE33FE76
:06021F00ED33FD020313A4
:1002250002033BEC5D046005E859047003020331E9
:100235001202FC580460F6EC4860F2EC7004FDFE16
:10024500FF22C860DB2481C85009C39860025006AC
:100255000203389850CAF582E9294B4A7005AB82EA
:1002650002032775F0007C1A7880C3EF9BEE9AEDA8
:1002750099400DC3EF9BFFEE9AFEED99FDE842F024
:10028500DC23ACF0D0E0FFD0E0FED0E0FDAB822077
:10029500E7101BEB60BAEC2CFCEF33FFEE33FEED01
:1002A50033FD020313E803F830E705C0F075F000ED
:1002B500EF2FFFEE33FEED33FD40B830E7C280AAE5
:1002C500EDD2E7CD33EC3392D524814006E4FFFE31
:1002D500FDFC22FCE4CFCECDCC24E0501174FF8090
:1002E500EDC3CC13CCCD13CDCE13CECF13CF04702D
:0702F500F030D5DE02059296
:100D6E0090626E1205F0E4FFFE7D807C3F90626E15
:100D7E00E0F8A3E0F9A3E0FAA3E0FB12036070062B
:100D8E0090626E020EC890626EE0FCA3E0FDA3E0DE
:100D9E00FEA3E0FF120346FBA3E0FCA3E0FDA3E0ED
:100DAE00FEA3E0FF120346FFB40108E4FFFE7D80C0
:100DBE007C3F22EF64046029EB64046024EBB401F1
:100DCE0030E4FFFEFDFC906272E0F8A3E0F9A3E0D0
:100DDE00FAA3E0FB12036060084006E4FFFEFDFC90
:100DEE00229062721205FCFFFFFFFF906272020EEC
:100DFE00C8E4906276F0A3F0FFFEFDFC90626EE018
:100E0E00F8A3E0F9A3E0FAA3E0FB120360505F90B1
:100E1E006272E0FCA3E0FDA3E0FEA3E0FF1202C5B8
:100E2E00906276EEF0A3EFF0FDCCEECCEC1203EF79
:100E3E00C8ECC8C9EDC9CAEECACBEFCB906272E05E
:100E4E00FCA3E0FDA3E0FEA3E0FF12002AE4FBFA00
:100E5E00F9F8120360708A90626EE0FCA3E0FDA3C5
:100E6E00E0FEA3E0FF1203D990626E1205F09062CD
:100E7E006EE0FCA3E0FDA3E0FEA3E0FF12130290E0
:100E8E006272E0F8A3E0F9A3E0FAA3E0FB12011FFF
:100E9E0012175F9062721205F0906277E030E017E1
:100EAE00906272E0FCA3E0FDA3E0FEA3E0FF12035C
:100EBE00D99062721205F0906272E0FCA3E0FDA37D
:060ECE00E0FEA3E0FF229C
:1002FC00E9D2E7C933E833F892D5EDD2E7CD33EC48
:07030C0033FC5002B2D522C0
:10031300EC30E7100FBF000C0EBE00080DBD00044B
:100323000BEB6014A2D5EB13FCED92E7FD2274FFF7
:10033300FCFDFEFF22E480F8A2D574FF13FC7D8050
:03034300E480EF64
:10034600ED33EC33601004700FED547F70057402CA
:0A03560092E0227404220422E42243
:1003600074F8CC6480CCC86480C8F58204604FC344
:10037000EB9FF5F0EA9E42F0E99D42F0E89C45F0E3
:10038000603C501DE5825FFFE582D313CB5BCBF46D
:100390002B5582FB50280ABA002409B90020088096
:1003A0001DE5825BFBE582D313CF5FCFF4C3132F30
:1003B0005582FF50090EBE00050DBD00010CC3EBB8
:1003C0009FF5F0EA9E42F0E99D42F0E89C45F0601E
:0903D00007CC4820E701B3EC2240
:1003D900ED33EC33600A047003BD8004ECB2E7FC32
:0103E90022F1
:1003EA0075F020800E75F010800575F0087D007E8E
:1003FA00007F003392D530D503120592EC334010BA
:10040A00EF33FFEE33FEED33FDEC33FCD5F0ED2296
:0E041A00E5F0247EA2D513CC92E7CDCEFF22D2
:1017270033DA929E35B16011377FE5FE392184891E
:101737003AAEC3FF3C1D955B3D6358473E75FDF0D0
:101747003F3172183F800000C2D502033B020331CC
:10175700BD80FA50F3020338ED33EC330460F17BBC
:101767003B7AAA79B8783F12011FED33EC3392D553
:10177700247B5011A2D570DB500BED44802404501C
:1017870004A2D580CEEFFBEEFAEDF9ECF81202C514
:10179700EFF582F404FC1203F412002EC0829017B6
:1017A700277409120437ED33CC33D0F092D525F0E6
:0A17B700A2D57001C313CC13FD226C
:1012CE003E9248DA3ECCCCCD3F2AAAAB400000007D
:1012DE003F8000003F9837F03FB504F33FD744FC02
:1012EE003E3172173EB172173F0515913EDE5BD946
:1012FE00D2088002C208EDD2E7F8CD33EC33047089
:10130E000BBD800592D502033B02033140FBD31483
:10131E0060F2F5F07C3FEE7A00C39496C8948B4051
:10132E00230AC89469C8941A401A0AC89468C894C3
:10133E001F40110AC8945AC89425400805F07A0037
:10134E00CDC2E7CDC0F09062781205F0EA2323C03B
:10135E00E024DEF582E43412F5831205E012002E4D
:10136E00ECC0E0EDC0E0EEC0E0EFC0E01205C490CE
:10137E0062781205D412002AD0E0FBD0E0FAD0E059
:10138E00F9D0E0B2E7F81202289062781205F090D8
:10139E0012CE74031204289062781205D412011F23
:1013AE00D0E0600F24EAF582E43412F5831205E0F2
:1013BE0012002E9062781205F0D0E0C3947FFDE407
:1013CE009400FC1203EF7B187A727931783F120188
:1013DE001F9062781205D412002E30080B7BD97A3A
:0913EE005B79DE783E12011F223A
:10042800C0E0EFFBEEFAEDF9ECF812011FD0E0F5B1
:10043800F0EFFBEEFAEDF9ECF81205C4A3A3A3A3C1
:10044800E8C0E0E9C0E0EAC0E0EBC0E0C0F01201BB
:100458001F1205E0A3A3A3A312002ED0F0D0E0FB47
:0D046800D0E0FAD0E0F9D0E0F8D5F0D422D1
:1017CD0002167EE493A3F8E493A34003F68001F29E
:1017DD0008DFF48029E493A3F85407240CC8C3331D
:1017ED00C4540F4420C8834004F456800146F6DFEC
:1017FD00E4800B0102040810204080900A9BE47ED7
:10180D00019360BCA3FF543F30E509541FFEE493E0
:10181D00A360010ECF54C025E060A840B8E493A3A7
:10182D00FAE493A3F8E493A3C8C582C8CAC583CAD2
:10183D00F0A3C8C582C8CAC583CADFE9DEE780BE8A
:010D6D000085
:10047500E88FF0A4CC8BF0A42CFCE98EF0A42CFC26
:100485008AF0EDA42CFCEA8EF0A4CDA8F08BF0A4A4
:100495002DCC3825F0FDE98FF0A42CCD35F0FCEB03
:1004A5008EF0A4FEA9F0EB8FF0A4CFC5F02ECD39C8
:0F04B500FEE43CFCEAA42DCE35F0FDE43CFC2235
:1004C40075F008758200EF2FFFEE33FECD33CDCCEF
:1004D40033CCC58233C5829BED9AEC99E582984072
:1004E4000CF582EE9BFEED9AFDEC99FC0FD5F0D64F
:1004F400E4CEFBE4CDFAE4CCF9A88222B800C1B979
:100504000059BA002DEC8BF084CFCECDFCE5F0CBB6
:10051400F97818EF2FFFEE33FEED33FDEC33FCEBEF
:1005240033FB10D703994004EB99FB0FD8E5E4F9AA
:10053400FA227818EF2FFFEE33FEED33FDEC33FC97
:10054400C933C910D7059BE99A4007EC9BFCE99A8B
:10055400F90FD8E0E4C9FAE4CCFB2275F010EF2FD0
:10056400FFEE33FEED33FDCC33CCC833C810D707D0
:100574009BEC9AE899400AED9BFDEC9AFCE899F80B
:0E0584000FD5F0DAE4CDFBE4CCFAE4C8F9229E
:0E059200C3E49FFFE49EFEE49DFDE49CFC227A
:1005A000EB9FF5F0EA9E42F0E99D42F0E89C45F0B1
:0105B0002228
:1005B100E8600FECC313FCED13FDEE13FEEF13FF28
:0305C100D8F1224C
:1005C400E493FC740193FD740293FE740393FF227D
:0C05D400E0F8A3E0F9A3E0FAA3E0FB22AA
:1005E000E493F8740193F9740293FA740393FB2271
:0C05F000ECF0A3EDF0A3EEF0A3EFF0227E
:1005FC00A8828583F0D083D08212061312061312C0
:10060C000613120613E473E493A3C583C5F0C583E4
:10061C00C8C582C8F0A3C583C5F0C583C8C582C848
:01062C0022AB
:10062D00EC8EF0A4CCC5F0CCCDF8EFA4CEC5F02D5A
:10063D00FDE43CFCE8A42EC8C5F03DFDE43CFCEF18
:0D064D00A4FFE5F028FEE43DFDE43CFC22A6
:00000001FF
