:0300000002178262
:0C178200787FE4F6D8FD7581210217C9BC
:0C000300000000000000000000000000F1
:0B000F00EF1FAC0670011E4C70F622C3
:101B1500AB07AA06EB1BAE0270011A4E60097FAA3D
:081B25007E0512000F80ED2285
:1014D300907120E04480F07F057E0012000FE4FF4E
:1014E300FE121B1575A75575AC589071327450F0E8
:1014F3009071307403F0907136742FF07F18EF24DD
:1015030066FDE434718D82F583E4F00FEFB433EEBE
:10151300904011E4935407FF90711CE054F84FF08E
:10152300904017E493547FFF90711DE054804FF077
:10153300904010E493FF5401C43333335480FE903E
:101543007123E0547F4EF0EFC313543F4440FFA395
:10155300E054804FF0904012E493FF540FFE9071DB
:1015630046E054F04EF0EFC4540FFF90714FE05437
:10157300F04FF0904013E493543FFF907140E054D8
:10158300C04FF0904014E493907126F0904015E41E
:0E15930093907128F0904016E49390712AF026
:0115A1002227
:070B0200446284428C0000F4
:1015A200C3906048E09470906047E0941740030253
:1015B2001637E4FFFE7D807CBF906284E0F8A3E0F2
:1015C200F9A3E0FAA3E0FB12002EE4FBFA79A87873
:1015D20042120228E4FBFA798078BF12002E906250
:1015E20088120657906284E0FCA3E0FDA3E0FEA30C
:1015F200E0FFE4FBFAF9783F12002E9062841206B3
:1016020057906288E0FCA3E0FDA3E0FEA3E0FF9018
:1016120062741206577F007E007DA07C40120DDDB1
:10162200E4FBFA7970784212011F1202C5906047FA
:10163200EEF0A3EFF0C3906048E09470906047E052
:0C164200941740077417F0A37470F02296
:10164E0075D9DD1214D375D95590715EE054FEF044
:10165E0075D9BB121ADD121AFA121950121A471244
:10166E001ABDC294E4906047F0A3F090629B741789
:10167E00F0A37470F0D20890629BE0FEA3E0FFC36B
:10168E00906048E09F906047E09E503B121B6712AF
:10169E0011CE300425C204C3906293E094C39062CD
:1016AE0092E09408401490629BE0FEA3E0FF9060ED
:1016BE0048E09F906047E09E500D300705C207122C
:1016CE0015A2121B5580B0C208121B671211CE1242
:0A16DE0012E81218EF12001A80EF54
:100B0900426047000042626D177042626917704285
:100B19006045000042626700004262651000416260
:100B29006F00621C60490000000000000000000026
:100B390000000000000000000000000000000000AC
:100B4900000000000000000000000000000000009C
:100B5900000000000000000000000000000000008C
:100B6900000000000000000000000000000000007C
:100D4900000042626B000060406000FFFF0000008D
:100D5900000000000000000000000000000000008A
:100D6900000000000000000000000000000000007A
:100D7900000000000000000000000000000000006A
:100D89000000000000000000000000416040004138
:100D990060410041604200C1004260430000C181DE
:020DA900C10285
:101950007812E24401F278567407F278277417F28D
:1019600018746FF27833E4F218F27819E24401F255
:101970007811E24401F27817E24401F27812E2446D
:1019800001F27814E24401F27818E24401F278D3CB
:10199000E254CFF2E24410F2E254FCF2E24401F2EB
:0C19A00090718AE4F090718C740AF022BF
:101B5500906047E07833F2A3E018F27817E2440189
:021B6500F2226A
:1006C10090627012066300000000906000E0F47018
:0906D10003A3E0F46003020766D4
:1006DA00906274F0A3F0906274E0FEA3E0FFC3940A
:1006EA0020EE9400502E906292E0FCA3E0FDEF25EC
:1006FA00E0FFEE33FE74002FF58274603EF583EC62
:10070A00F0A3EDF0906275E004F070CA906274E0B4
:10071A0004F080C2E4906274F0A3F0906274E0FE88
:10072A00A3E0FFC3940EEE940140030207C7906250
:10073A0092E0FCA3E0FDEF25E0FFEE33FE74492FC3
:10074A00F58274603EF583ECF0A3EDF0906275E0FB
:0C075A0004F070C7906274E004F080BFEF
:10076600906040E025E02400F582E43460F583E003
:10077600FFA3E0906274CFF0A3EFF0906292E0FEE8
:10078600A3E0FF906275E02FF0906274E03EF0E027
:10079600C313FEA3E013FF906274EEF0A3EFF09094
:1007A6006040E025E02400F582E43460F583EEF055
:1007B600A3EFF0906040E004F0E0C394204002E430
:0107C600F042
:1007C700E4906274F0A3F0906270E0F8A3E0F9A3FC
:1007D700E0FAA3E0FB906275E025E0FF906274E029
:1007E70033FE74002FF58274603EF583E0FEA3E0CC
:1007F700FFE4FCFDEB2FFFEA3EFEED39FDEC38FC94
:10080700906270120657906275E004F0700690626D
:1008170074E004F0906274E07004A3E0642070A7B1
:10082700906270E0FCA3E0FDA3E0FEA3E0FF780583
:09083700120618906270120657B7
:10084000906270A3A3E0FEA3E0FDAC0690626CE0B2
:1008500025E0FF90626BE033FE74492FF5827460EF
:100860003EF583ECF0A3EDF090626CE004F07006CE
:1008700090626BE004F0C390626CE0940E90626B47
:09088000E094014004E4F0A3F04F
:10088900E4906274F0A3F0906267F0A3F09062655F
:100899007410F0A3E4F0906274E0FEA3E0FFC39447
:1008A9000EEE9401400302096DEF25E0FFEE33FEE1
:1008B90074492FF58274603EF583E0FCA3E0FD9056
:1008C9006267E0FAA3E0FBD3ED9BEC9A401674490A
:1008D9002FF58274603EF583E0FFA3E0906267CF55
:1008E900F0A3EFF0906275E025E0FF906274E033C9
:1008F900FE74492FF58274603EF583E0FCA3E0FDA8
:10090900906265E0FAA3E0FBC3ED9BEC9A50167484
:10091900492FF58274603EF583E0FFA3E09062659C
:10092900CFF0A3EFF0906265E0FEA3E0FFC3906211
:1009390068E09FFF906267E09EFED3EF9450EE94CB
:1009490000400890626F741EF0800890626FE0604A
:100959000214F0906275E004F07006906274E0048D
:04096900F002089FF1
:10096D00E47F8B7E06FDFC906270E0F8A3E0F9A3B6
:10097D00E0FAA3E0FBC31206075020200003020A91
:10098D0018E47F8B7E06FDFC906270E0F8A3E0F921
:10099D00A3E0FAA3E0FB1206074070E4906041F07B
:1009AD00A3F0D20090626FE0FFB41E3214F0D3902A
:1009BD00626EE094B890626DE0940B400CA3E0245D
:1009CD00FFF090626DE034FFF0C390626EE094B87A
:1009DD0090626DE0940B4003020B01020AA1EF60DF
:1009ED0003020B01200303020B01C203C390626ECD
:1009FD00E0947090626DE094174003020B01A3E048
:100A0D0004F0700690626DE004F022E47FC37E0571
:100A1D00FDFC906270E0F8A3E0F9A3E0FAA3E0FB1F
:100A2D00D31206074076E47F6D7E06FDFC90627062
:100A3D00E0F8A3E0F9A3E0FAA3E0FBD31206074028
:100A4D0008906041E064047053200403020B01C25E
:100A5D0004906041E0C394045003E004F0E490601E
:100A6D0042F0C200D390626EE094B890626DE09453
:100A7D000B40028069C390626EE094B890626DE0A5
:100A8D00940B500DA3E004F0700690626DE004F03D
:100A9D002290626D740BF0A374B8F022E47FC37ED4
:100AAD0005FDFC906270E0F8A3E0F9A3E0FAA3E085
:100ABD00FBD31206074006906042E06037300434E5
:100ACD00C2049060427401F0E4906041F0C200D322
:100ADD0090626EE0940890626DE09407400DA3E083
:100AED0024FEF090626DE034FFF02290626D740789
:040AFD00F0A304F06E
:010B010022D1
:03001A00C294226B
:1013F40090626DE0FEA3E0FF90629BE0FCA3E0FD41
:10140400120694E47B707A17F9F81205673001111B
:10141400C20190629BE0FDA3E0906043CDF0A3ED98
:10142400F090629BE0FCA3E0FD906043E06C7003ED
:10143400A3E06D6002D20230024E300553C205C3F0
:10144400906048E09F906047E09E500EA3E004F057
:10145400703E906047E004F08036D3906048E09F8F
:10146400906047E09E400EA3E024FFF0906047E0C8
:1014740034FFF0801B90629BE0FFA3E0906043CFB9
:10148400F0A3EFF0C2028008906047EEF0A3EFF003
:10149400121B55200838D3906048E094A790604709
:1014A400E09402500E7818E254FEF290718CE4F04D
:1014B400D29622C3906048E094A7906047E09402DB
:0E14C400400C90718C740AF07818E24401F22A
:0114D20022F7
:0F0DAB004162940041629100C1094262920000CE
:101ADD0078F2E24403F278E3E244C0F278F0E254A3
:0D1AED00FDF208E254FDF208E2440CF22282
:10188300906291E06F6064EFF0786AE24478F275F9
:1018930091FFEF24FE601D146030240270469071A6
:1018A30023E054F8F0E0441EF09071227407F075C1
:1018B3009918802A907123E054D8F0E0441DF090E9
:1018C30071227407F07599178014907123E054F80E
:1018D300F0E0441EF09071227407F075991978694D
:0B18E300E24448F27F017E00121B155A
:0118EE0022D7
:100F4300E4906279F0A3F0A3F090627C1206630050
:100F5300000000E4906280F0A3F074FF906282F0DE
:100F6300A3F0E4906279F07869E24401F2786BE2ED
:100F730030E1FAAF93EF75F010A4FFE594C4540F7A
:100F8300FDEF4DFF90627AE5F0F0A3EFF07402F20B
:100F9300906279E0C39402406D906280E0FEA3E02A
:100FA300FFD390627BE09F90627AE09E400CE0FF6B
:100FB300A3E0906280CFF0A3EFF0906282E0FEA303
:100FC300E0FFC390627BE09F90627AE09E500CE06A
:100FD300FFA3E0906282CFF0A3EFF090627CE0F891
:100FE300A3E0F9A3E0FAA3E0FB90627AE0FEA3E0BA
:100FF300FFE4FCFDEB2FFFEA3EFEED39FDEC38FC90
:1010030090627C120657906279E004F0E064146009
:1010130003020F6A90627CE0FCA3E0FDA3E0FEA361
:10102300E0FFC006C007906280E0FEA3E0FBAA06D3
:10103300D007D006C3EF9BFFEE9AFEED9400FDECC4
:101043009400FC90627C12065790627CE0FCA3E063
:10105300FDA3E0FEA3E0FFC006C007906282E0FEAE
:10106300A3E0FBAA06D007D006C3EF9BFFEE9AFED0
:10107300ED9400FDEC9400FC90627C1206579062A4
:101083007CE0FCA3E0FDA3E0FEA3E0FF78041206EE
:101093001890627AEEF0A3EFF090627AE0FEA3E09C
:0110A300FF4D
:0110A4002229
:101A870090627512066300000000120F43E4FCFD2C
:101A9700906275120657E47F0CFEFDFC906275E0BC
:101AA700F8A3E0F9A3E0FAA3E0FB1204DCE47B0A65
:061AB700FAF9F8020567D0
:1012E80090627012066300000000906294E064024D
:1012F80070030213F37F01121883121A8790627029
:10130800120657906294E070587FEA7E0BFDFC90BD
:101318006270E0F8A3E0F9A3E0FAA3E0FBC31206C9
:0313280007503E2D
:10132B00E4906274F0F0121A87906270120657E420
:10133B007FEA7E0BFDFC906270E0F8A3E0F9A3E07E
:10134B00FAA3E0FBD31206074006E4906294F02266
:0E135B00906274E004F0E0C3940A40CA80621D
:0B136900906294E0640160030213F343
:1013740020090FD209906295120663000000001242
:101384001B88E47F307E75FDFC906295E0F8A3E055
:0D139400F9A3E0FAA3E0FBC31206074052E4
:1013A100E4906274F0F0121A87906270120657E4AA
:1013B1007FEA7E0BFDFC906270E0F8A3E0F9A3E008
:1013C100FAA3E0FBD312060740079062947401F080
:1013D10022906274E004F0E0C3940A40C9906294E0
:1013E1007402F0121B419062951206630000000026
:0213F100C2092F
:0113F30022D7
:1018EF00906294E070061206C10213F4906294E0C5
:1018FF00B4012390626D740BF0A374B8F090626D15
:10190F00E0FEA3E0FF906047E06E7003A3E06F601E
:10191F002F1213F480E7906294E0B4022390626D6B
:10192F007405F0A374DCF090626DE0FEA3E0FF900D
:10193F006047E06E7003A3E06F60051213F480E759
:01194F002275
:101B67007F02121883120F43906292EEF0A3EFF0F8
:011B7700224B
:0C0DBA0041629A00C10641629900C10725
:101AFA0043A820D2AF75D10178957401F218747693
:0B1B0A00F2789174A0F21874FDF22232
:101B78007890E2541FF2E244C0F243A820D2AF2288
:101B2D007890E2541FF2E244A0F27892E4F208F2C7
:041B3D0053A8DF22A8
:03001E00021A01C2
:101A0100C0E0C083C082C0D075D000C0007891E230
:101A110030E728E24480F290629AE004F090629903
:101A2100E004F0A3E0C394194004E4F0D20690620C
:101A310099E0C3940D4004E4F0D207D000D0D0D097
:061A410082D083D0E032E8
:070DC60044629500000000EB
:101A4700E5B154CF42B1789CE254E3F2E24414F298
:101A5700E254FCF2E24401F208E24480F2E244205C
:101A6700F278A1743BF2187460F2789EE4F208F2FF
:101A7700789CE2541FF2E244A0F253A8BFD2AF22EF
:101B8800789CE2541FF2E244C0F243A840D2AF224C
:101B4100789CE2541FF2E244A0F2789EE4F208F29B
:041B510053A8BF22B4
:030021000219AC15
:1019AC00C0E0C0F0C083C082C0D075D000C000C001
:1019BC0004C005C006C007789DE230E723E24480EE
:1019CC00F2906295E0FCA3E0FDA3E0FEA3E024010D
:1019DC00FFE43EFEE43DFDE43CFC906295120657AC
:1019EC00D007D006D005D004D000D0D0D082D08380
:0519FC00D0F0D0E03244
:0A0DCD00C103C10441629000C1059A
:101ABD0043A901D2AF75D104907105E4F090710482
:101ACD007424F090710174A0F090710074FDF022F7
:0300240002180EB1
:10180E00C0E0C083C082C0D0907101E030E75DE0DF
:10181E004480F090628DE004F0700690628CE004DB
:10182E00F090628FE004F0700690628EE004F0900B
:10183E006290E004F0C390628FE0940D90628EE0AF
:10184E0094004006E4F0A3F0D204C390628DE094BD
:10185E000D90628CE094004006E4F0A3F0D2039069
:10186E006290E0C3940A4004E4F0D205D0D0D08256
:05187E00D083D0E03230
:050DD70042629B0000D8
:1011CE00E4906270F0A3F0906272F0A3F07F0312CD
:1011DE001883120F43906270EEF0A3EFF0906271DD
:1011EE00E02459FF906270E034FDFE7C007D141205
:1011FE000487906272EEF0A3EFF0C3906271E094F8
:10120E0037906270E0940F401490629B7417F0A3B5
:10121E007470F0906272E4F0A374A0F022D3906226
:10122E0071E094A7906270E09402500EE490629B7D
:10123E00F0A3F0906272F0A3F022906272E0FEA32F
:10124E00E0FF7C007D14120475EF2404FFE43EFEE3
:10125E00D3906271E09F906270E09E401F90627228
:10126E00E0FEA3E0FF120475EF2410FFE43EFEC380
:10127E00906271E09F906270E09E403D906272E0DD
:10128E00FEA3E0FF7C007D14120475EF2404FFE43E
:10129E003EFEC3906271E09F906270E09E501A9085
:1012AE006273E09400906272E09400400CA3E0241C
:1012BE00FFF0906272E034FFF0906272E0FEA3E005
:1012CE00FF7C177D70120694E47BA0FAF9F81205E4
:0912DE006790629BEEF0A3EFF0B3
:0112E70022E4
:10002700020331E86480F8E933E83360110460F0D3
:10003700ED33EC337009E8FCE9FDEAFEEBFF22043F
:1000470060DED3EB9FEA9EE99DE8C2E78CF0C2F73A
:1000570095F0400CE8CCF8E9CDF9EACEFAEBCFFB06
:100067001202FC85D0F05804700320D5B3E8047061
:10007700075002B2D502033B92D5EC0460F7E4CCFB
:10008700C0E0C398F8603B94186008400DD0E0FBCF
:10009700020313E4FBFAC9FC8028E830E406E4C94C
:1000A700FBE4CAFCE830E305E4C9CACBFCE8540723
:1000B7006010F8C3E913F9EA13FAEB13FBEC13FC2E
:1000C700D8F130F52FC3E49CFCEF9BFFEE9AFEEDD1
:1000D70099FDD0E0FBEF4E4D4C701222DB0302037B
:1000E70038EC2CFCEF33FFEE33FEED33FDED30E75C
:1000F700EB020313EF2BFFEE3AFEED39FDD0E0FBE9
:1001070050130BBB000302033BED13FDEE13FEEF91
:0801170013FFEC13FC020313BB
:10011F00EC4D6011E8497017ED33EC3304600DE4DA
:10012F00FCFFFEFD22E933E8330470F802033112BD
:10013F0002FC58046009E4CC2481500628500902BF
:10014F00033B284003020338C0E0EB4A7044B980F8
:10015F0006D0E0FB020327EF4E701CBD8008EBFFBB
:10016F00EAFEE9FD80EBE98DF0A4FEE5F00202085E
:10017F00E9CDF9EAFEEBFFEF89F0A4FCE5F0CE89BB
:10018F00F0A42EFFE435F0CD89F0A42DFEE435F078
:10019F008067EF4E7005BD80D780C3EF8BF0A4ACA6
:1001AF00F0EE8BF0A42CFCE435F0F8EF8AF0A42CE1
:1001BF00E5F038FCE433CB8DF0A42CFCE5F03BF8F4
:1001CF00EE8AF0A42CFCE5F038F8E433CF89F0A4E4
:1001DF002CFCE5F038CF3400CE89F0A42FFFE5F0EA
:1001EF003EFEE433C98DF0A42EFEE5F039CD8AF042
:1001FF00A42FFFE5F03EFEE43DFD33D0E0FB5007BA
:10020F000BBB000F02033BEC2CFCEF33FFEE33FE76
:06021F00ED33FD020313A4
:1002250002033BEC5D046005E859047003020331E9
:100235001202FC580460F6EC4860F2EC7004FDFE16
:10024500FF22C860DB2481C85009C39860025006AC
:100255000203389850CAF582E9294B4A7005AB82EA
:1002650002032775F0007C1A7880C3EF9BEE9AEDA8
:1002750099400DC3EF9BFFEE9AFEED99FDE842F024
:10028500DC23ACF0D0E0FFD0E0FED0E0FDAB822077
:10029500E7101BEB60BAEC2CFCEF33FFEE33FEED01
:1002A50033FD020313E803F830E705C0F075F000ED
:1002B500EF2FFFEE33FEED33FD40B830E7C280AAE5
:1002C500EDD2E7CD33EC3392D524814006E4FFFE31
:1002D500FDFC22FCE4CFCECDCC24E0501174FF8090
:1002E500EDC3CC13CCCD13CDCE13CECF13CF04702D
:0702F500F030D5DE0205F92F
:100DDD00906270120657E4FFFE7D807C3F9062703A
:100DED00E0F8A3E0F9A3E0FAA3E0FB1203607006BC
:100DFD00906270020F37906270E0FCA3E0FDA3E0FB
:100E0D00FEA3E0FF120346FBA3E0FCA3E0FDA3E07D
:100E1D00FEA3E0FF120346FFB40108E4FFFE7D8050
:100E2D007C3F22EF64046029EB64046024EBB40181
:100E3D0030E4FFFEFDFC906274E0F8A3E0F9A3E05E
:100E4D00FAA3E0FB12036060084006E4FFFEFDFC20
:100E5D0022906274120663FFFFFFFF906274020F0F
:100E6D0037E4906278F0A3F0FFFEFDFC906270E035
:100E7D00F8A3E0F9A3E0FAA3E0FB120360505F9042
:100E8D006274E0FCA3E0FDA3E0FEA3E0FF1202C547
:100E9D00906278EEF0A3EFF0FDCCEECCEC1203EF08
:100EAD00C8ECC8C9EDC9CAEECACBEFCB906274E0ED
:100EBD00FCA3E0FDA3E0FEA3E0FF12002AE4FBFA91
:100ECD00F9F8120360708A906270E0FCA3E0FDA354
:100EDD00E0FEA3E0FF1203D99062701206579062F4
:100EED0070E0FCA3E0FDA3E0FEA3E0FF1210D9909B
:100EFD006274E0F8A3E0F9A3E0FAA3E0FB12011F8E
:100F0D00121720906274120657906279E030E01744
:100F1D00906274E0FCA3E0FDA3E0FEA3E0FF1203EA
:100F2D00D9906274120657906274E0FCA3E0FDA3A1
:060F3D00E0FEA3E0FF222C
:1002FC00E9D2E7C933E833F892D5EDD2E7CD33EC48
:07030C0033FC5002B2D522C0
:10031300EC30E7100FBF000C0EBE00080DBD00044B
:100323000BEB6014A2D5EB13FCED92E7FD2274FFF7
:10033300FCFDFEFF22E480F8A2D574FF13FC7D8050
:03034300E480EF64
:10034600ED33EC33601004700FED547F70057402CA
:0A03560092E0227404220422E42243
:1003600074F8CC6480CCC86480C8F58204604FC344
:10037000EB9FF5F0EA9E42F0E99D42F0E89C45F0E3
:10038000603C501DE5825FFFE582D313CB5BCBF46D
:100390002B5582FB50280ABA002409B90020088096
:1003A0001DE5825BFBE582D313CF5FCFF4C3132F30
:1003B0005582FF50090EBE00050DBD00010CC3EBB8
:1003C0009FF5F0EA9E42F0E99D42F0E89C45F0601E
:0903D00007CC4820E701B3EC2240
:1003D900ED33EC33600A047003BD8004ECB2E7FC32
:0103E90022F1
:1003EA0075F020800E75F010800575F0087D007E8E
:1003FA00007F003392D530D5031205F9EC33401053
:10040A00EF33FFEE33FEED33FDEC33FCD5F0ED2296
:0E041A00E5F0247EA2D513CC92E7CDCEFF22D2
:1016E80033DA929E35B16011377FE5FE392184895E
:1016F8003AAEC3FF3C1D955B3D6358473E75FDF010
:101708003F3172183F800000C2D502033B0203310B
:10171800BD80FA50F3020338ED33EC330460F17BFB
:101728003B7AAA79B8783F12011FED33EC3392D592
:10173800247B5011A2D570DB500BED44802404505B
:1017480004A2D580CEEFFBEEFAEDF9ECF81202C553
:10175800EFF582F404FC1203F412002EC0829016F6
:10176800E87409120437ED33CC33D0F092D525F064
:0A177800A2D57001C313CC13FD22AB
:1010A5003E9248DA3ECCCCCD3F2AAAAB40000000A8
:1010B5003F8000003F9837F03FB504F33FD744FC2D
:1010C5003E3172173EB172173F0515913EDE5BD971
:1010D500D20A8002C20AEDD2E7F8CD33EC330470B0
:1010E5000BBD800592D502033B02033140FBD314AF
:1010F50060F2F5F07C3FEE7A00C39496C8948B407D
:10110500230AC89469C8941A401A0AC89468C894EE
:101115001F40110AC8945AC89425400805F07A0062
:10112500CDC2E7CDC0F090627A120657EA2323C0FC
:10113500E024B5F582E43410F58312064712002E3B
:10114500ECC0E0EDC0E0EEC0E0EFC0E012062B9091
:10115500627A12063B12002AD0E0FBD0E0FAD0E01A
:10116500F9D0E0B2E7F812022890627A1206579099
:1011750010A5740312042890627A12063B12011F0F
:10118500D0E0600F24C1F582E43410F583120647E0
:1011950012002E90627A120657D0E0C3947FFDE4C8
:1011A5009400FC1203EF7B187A727931783F1201B3
:1011B5001F90627A12063B12002E300A0B7BD97AF9
:0911C5005B79DE783E12011F2265
:10042800C0E0EFFBEEFAEDF9ECF812011FD0E0F5B1
:10043800F0EFFBEEFAEDF9ECF812062BA3A3A3A359
:10044800E8C0E0E9C0E0EAC0E0EBC0E0C0F01201BB
:100458001F120647A3A3A3A312002ED0F0D0E0FBDF
:0D046800D0E0FAD0E0F9D0E0F8D5F0D422D1
:10178E0002164EE493A3F8E493A34003F68001F20D
:10179E0008DFF48029E493A3F85407240CC8C3335C
:1017AE00C4540F4420C8834004F456800146F6DF2B
:1017BE00E4800B0102040810204080900B02E47EAE
:1017CE00019360BCA3FF543F30E509541FFEE49320
:1017DE00A360010ECF54C025E060A840B8E493A3E7
:1017EE00FAE493A3F8E493A3C8C582C8CAC583CA12
:1017FE00F0A3C8C582C8CAC583CADFE9DEE780BECA
:010DDC000016
:10047500EF8DF0A4A8F0CF8CF0A428CE8DF0A42E9B
:02048500FE2255
:10048700BC000BBE0029EF8DF084FFADF022E4CC59
:10049700F875F008EF2FFFEE33FEEC33FCEE9DEC22
:1004A700984005FCEE9DFE0FD5F0E9E4CEFD22ED68
:1004B700F8F5F0EE8420D21CFEADF075F008EF2FB2
:1004C700FFED33FD4007985006D5F0F222C398FDA3
:0504D7000FD5F0EA2240
:1004DC00E88FF0A4CC8BF0A42CFCE98EF0A42CFCBF
:1004EC008AF0EDA42CFCEA8EF0A4CDA8F08BF0A43D
:1004FC002DCC3825F0FDE98FF0A42CCD35F0FCEB9C
:10050C008EF0A4FEA9F0EB8FF0A4CFC5F02ECD3960
:0F051C00FEE43CFCEAA42DCE35F0FDE43CFC22CD
:10052B0075F008758200EF2FFFEE33FECD33CDCC87
:10053B0033CCC58233C5829BED9AEC99E58298400A
:10054B000CF582EE9BFEED9AFDEC99FC0FD5F0D6E7
:10055B00E4CEFBE4CDFAE4CCF9A88222B800C1B911
:10056B000059BA002DEC8BF084CFCECDFCE5F0CB4F
:10057B00F97818EF2FFFEE33FEED33FDEC33FCEB88
:10058B0033FB10D703994004EB99FB0FD8E5E4F943
:10059B00FA227818EF2FFFEE33FEED33FDEC33FC30
:1005AB00C933C910D7059BE99A4007EC9BFCE99A24
:1005BB00F90FD8E0E4C9FAE4CCFB2275F010EF2F69
:1005CB00FFEE33FEED33FDCC33CCC833C810D70769
:1005DB009BEC9AE899400AED9BFDEC9AFCE899F8A4
:0E05EB000FD5F0DAE4CDFBE4CCFAE4C8F92237
:0E05F900C3E49FFFE49EFEE49DFDE49CFC2213
:10060700EB9FF5F0EA9E42F0E99D42F0E89C45F049
:0106170022C0
:10061800E8600FECC313FCED13FDEE13FEEF13FFC0
:03062800D8F122E4
:10062B00E493FC740193FD740293FE740393FF2215
:0C063B00E0F8A3E0F9A3E0FAA3E0FB2242
:10064700E493F8740193F9740293FA740393FB2209
:0C065700ECF0A3EDF0A3EEF0A3EFF02216
:10066300A8828583F0D083D08212067A12067A128A
:10067300067A12067AE473E493A3C583C5F0C583AF
:10068300C8C582C8F0A3C583C5F0C583C8C582C8E1
:010693002244
:10069400EC8EF0A4CCC5F0CCCDF8EFA4CEC5F02DF3
:1006A400FDE43CFCE8A42EC8C5F03DFDE43CFCEFB1
:0D06B400A4FFE5F028FEE43DFDE43CFC223F
:00000001FF
